{"contracts/HabitForge.sol":{"HabitForge":{"abi":[{"inputs":[{"internalType":"uint256","name":"_userId","type":"uint256"},{"internalType":"uint256[]","name":"_habitIds","type":"uint256[]"},{"internalType":"uint256[]","name":"_completedAtList","type":"uint256[]"},{"internalType":"uint256[]","name":"_finalStreaks","type":"uint256[]"},{"internalType":"uint256[]","name":"_lastCompletedList","type":"uint256[]"},{"internalType":"uint256","name":"_totalXp","type":"uint256"},{"internalType":"uint256","name":"_newLevel","type":"uint256"}],"name":"batchSeedHistory","outputs":[],"stateMutability":"nonpayable","type":"function"},{"inputs":[{"internalType":"uint256","name":"_userId","type":"uint256"},{"internalType":"string","name":"_name","type":"string"},{"internalType":"string","name":"_frequency","type":"string"},{"internalType":"string","name":"_color","type":"string"},{"internalType":"string","name":"_icon","type":"string"},{"internalType":"uint256","name":"_refreshInterval","type":"uint256"}],"name":"createHabit","outputs":[{"internalType":"uint256","name":"","type":"uint256"}],"stateMutability":"nonpayable","type":"function"},{"inputs":[{"internalType":"string","name":"_name","type":"string"},{"internalType":"string","name":"_email","type":"string"}],"name":"createUser","outputs":[{"internalType":"uint256","name":"","type":"uint256"}],"stateMutability":"nonpayable","type":"function"},{"inputs":[{"internalType":"uint256","name":"_id","type":"uint256"}],"name":"deleteHabit","outputs":[],"stateMutability":"nonpayable","type":"function"},{"inputs":[{"internalType":"uint256","name":"_id","type":"uint256"}],"name":"getHabit","outputs":[{"components":[{"internalType":"uint256","name":"id","type":"uint256"},{"internalType":"uint256","name":"userId","type":"uint256"},{"internalType":"string","name":"name","type":"string"},{"internalType":"string","name":"frequency","type":"string"},{"internalType":"string","name":"color","type":"string"},{"internalType":"string","name":"icon","type":"string"},{"internalType":"uint256","name":"streak","type":"uint256"},{"internalType":"uint256","name":"lastCompleted","type":"uint256"},{"internalType":"uint256","name":"refreshInterval","type":"uint256"},{"internalType":"uint256","name":"createdAt","type":"uint256"}],"internalType":"struct HabitForge.Habit","name":"","type":"tuple"}],"stateMutability":"view","type":"function"},{"inputs":[{"internalType":"uint256","name":"_userId","type":"uint256"}],"name":"getHabitsByUserId","outputs":[{"components":[{"internalType":"uint256","name":"id","type":"uint256"},{"internalType":"uint256","name":"userId","type":"uint256"},{"internalType":"string","name":"name","type":"string"},{"internalType":"string","name":"frequency","type":"string"},{"internalType":"string","name":"color","type":"string"},{"internalType":"string","name":"icon","type":"string"},{"internalType":"uint256","name":"streak","type":"uint256"},{"internalType":"uint256","name":"lastCompleted","type":"uint256"},{"internalType":"uint256","name":"refreshInterval","type":"uint256"},{"internalType":"uint256","name":"createdAt","type":"uint256"}],"internalType":"struct HabitForge.Habit[]","name":"","type":"tuple[]"}],"stateMutability":"view","type":"function"},{"inputs":[{"internalType":"uint256","name":"_userId","type":"uint256"}],"name":"getLogsByUserId","outputs":[{"components":[{"internalType":"uint256","name":"id","type":"uint256"},{"internalType":"uint256","name":"habitId","type":"uint256"},{"internalType":"uint256","name":"userId","type":"uint256"},{"internalType":"uint256","name":"completedAt","type":"uint256"}],"internalType":"struct HabitForge.HabitLog[]","name":"","type":"tuple[]"}],"stateMutability":"view","type":"function"},{"inputs":[{"internalType":"uint256","name":"_userId","type":"uint256"}],"name":"getLogsCountByUserId","outputs":[{"internalType":"uint256","name":"","type":"uint256"}],"stateMutability":"view","type":"function"},{"inputs":[{"internalType":"uint256","name":"_id","type":"uint256"}],"name":"getUser","outputs":[{"components":[{"internalType":"uint256","name":"id","type":"uint256"},{"internalType":"string","name":"name","type":"string"},{"internalType":"string","name":"email","type":"string"},{"internalType":"uint256","name":"xp","type":"uint256"},{"internalType":"uint256","name":"level","type":"uint256"},{"internalType":"string[]","name":"badges","type":"string[]"},{"internalType":"bool","name":"isPremium","type":"bool"},{"internalType":"uint256","name":"createdAt","type":"uint256"}],"internalType":"struct HabitForge.User","name":"","type":"tuple"}],"stateMutability":"view","type":"function"},{"inputs":[{"internalType":"string","name":"_email","type":"string"}],"name":"getUserByEmail","outputs":[{"components":[{"internalType":"uint256","name":"id","type":"uint256"},{"internalType":"string","name":"name","type":"string"},{"internalType":"string","name":"email","type":"string"},{"internalType":"uint256","name":"xp","type":"uint256"},{"internalType":"uint256","name":"level","type":"uint256"},{"internalType":"string[]","name":"badges","type":"string[]"},{"internalType":"bool","name":"isPremium","type":"bool"},{"internalType":"uint256","name":"createdAt","type":"uint256"}],"internalType":"struct HabitForge.User","name":"","type":"tuple"}],"stateMutability":"view","type":"function"},{"inputs":[{"internalType":"uint256","name":"_habitId","type":"uint256"},{"internalType":"uint256","name":"_userId","type":"uint256"},{"internalType":"uint256","name":"_completedAt","type":"uint256"},{"internalType":"uint256","name":"_newStreak","type":"uint256"}],"name":"logCompletion","outputs":[{"internalType":"uint256","name":"","type":"uint256"}],"stateMutability":"nonpayable","type":"function"},{"inputs":[{"internalType":"uint256","name":"_id","type":"uint256"},{"internalType":"string","name":"_name","type":"string"},{"internalType":"string","name":"_frequency","type":"string"},{"internalType":"string","name":"_color","type":"string"},{"internalType":"string","name":"_icon","type":"string"}],"name":"updateHabit","outputs":[],"stateMutability":"nonpayable","type":"function"},{"inputs":[{"internalType":"uint256","name":"_id","type":"uint256"},{"internalType":"uint256","name":"_streak","type":"uint256"},{"internalType":"uint256","name":"_lastCompleted","type":"uint256"}],"name":"updateHabitStreak","outputs":[],"stateMutability":"nonpayable","type":"function"},{"inputs":[{"internalType":"uint256","name":"_id","type":"uint256"},{"internalType":"string","name":"_name","type":"string"},{"internalType":"string","name":"_email","type":"string"}],"name":"updateUser","outputs":[],"stateMutability":"nonpayable","type":"function"},{"inputs":[{"internalType":"uint256","name":"_id","type":"uint256"},{"internalType":"uint256","name":"_xp","type":"uint256"},{"internalType":"uint256","name":"_level","type":"uint256"},{"internalType":"string[]","name":"_badges","type":"string[]"}],"name":"updateUserStats","outputs":[],"stateMutability":"nonpayable","type":"function"},{"inputs":[{"internalType":"uint256","name":"_id","type":"uint256"}],"name":"upgradeUser","outputs":[],"stateMutability":"nonpayable","type":"function"}],"evm":{"bytecode":{"linkReferences":{},"object":"60808060405234610025576000600455600060055560006006556126e1908161002b8239f35b600080fdfe6080604052600436101561001257600080fd5b60e0600035811c80631243f5fe14611fec57806318046ae114611eb35780633438299614611e615780633bfbc0b814611dfa5780634e0d48a714611b325780634f553ed7146115c05780635b666b09146115545780637b7c3a9b146112595780638023e76814610ddb57806387b162b5146108735780638d3a912f146106a45780639c196582146105d0578063b0467deb146104be578063d9f0be4514610329578063dae52b0a146102e05763fa0d2b76146100cd57600080fd5b346102db573660031901126102db576001600160401b036024358181116102db576100fc9036906004016122d2565b6044358381116102db576101149036906004016122d2565b936064358181116102db5761012d9036906004016122d2565b90916084359081116102db576101479036906004016122d2565b9290936004351515806102cd575b61015e90612380565b8515806102c4576102ae57858804955b60005b81811061019d576004356000526000602052604060002060a4356003820155600460c435910155600080f35b6101a881838b61268e565b3581898102048914821517156102985760005b8b8a80831061020c57505050906001916101d682888861268e565b358160005283906020908282526006604060002001556101f7848b8d61268e565b35926000525260076040600020015501610171565b829161021f60019461022693880261269e565b908861268e565b35610232575b016101bb565b8c8b600691610283610244845461258e565b918285558260005261027c866002958a8a60209789895260406000209081550155875460005260043587604060002001558b0261269e565b908b61268e565b3592546000525260036040600020015561022c565b634e487b7160e01b600052601160045260246000fd5b634e487b7160e01b600052601260045260246000fd5b5060009561016e565b506004805490351115610155565b600080fd5b346102db5760203660031901126102db576004358015158061031d575b61030690612302565b600052600160205260006001604082200155600080f35b506005548111156102fd565b346102db576020806003193601126102db57600435801515806104b2575b61035090612380565b60055460009160015b82811115610477575061038461036e846122bb565b9361037c6040519586612093565b8085526122bb565b601f19018460005b8281106104615750505060006001905b8382111561040257604080518781528651818901819052600092600582901b8301810191898b01918b9085015b8287106103d65785850386f35b9091929382806103f2600193603f198a82030186528851612226565b96019201960195929190926103c9565b81600052600186526040600020918360018401541461042d575b61042791925061258e565b9061039c565b61045882610447610441610427959261258e565b956124eb565b610451828a612664565b5287612664565b5082915061041c565b61046961249c565b82828801015201859061038c565b8060005260018552816001604060002001541461049d575b6104989061258e565b610359565b926104aa6104989161258e565b93905061048f565b50600454811115610347565b50346102db576020806003193601126102db576004356104dc612340565b50801515806105c4575b6104ef90612380565b600052600081526040600020916040519161050983612040565b83548352600161051b600186016123f7565b8285015261052b600286016123f7565b6040850152600385015460608501526004850154608085015260058501805490610554826122bb565b936105626040519586612093565b82855260009182528082208186015b8484106105a95760a0890187905260068a015460ff16151560c08a015260078a0154888a0152604051806105a58b82612152565b0390f35b858381926105b6856123f7565b815201920193019290610571565b506004548111156104e6565b346102db5760803660031901126102db5760443560043560243581151580610698575b6105fc90612302565b8015158061068c575b61060e90612380565b600361061b60065461258e565b806006556040519261062c84612078565b81845260208401858152604085019182526060850192878452600052600260205260406000209451855551600185015551600284015551910155600052600160205260076040600020606435600682015501556020600654604051908152f35b50600454811115610605565b506005548211156105f3565b346102db576020806003193601126102db576004359081151580610867575b6106cc90612380565b60065460009260015b8281111561082d57506107006106ea856122bb565b946106f86040519687612093565b8086526122bb565b601f19018360005b8281106107fb5750505060006001905b8382111561077b57604080518681528751818801819052888801928201908860005b8281106107475784840385f35b855180518552808301518584015260408082015190860152606090810151908501529481019460809093019260010161073a565b816000526002918286526040600020928301548481146107a8575b506107a291925061258e565b90610718565b6107a2926107f39160036107bb8361258e565b96604051926107c984612078565b8154845260018201548c8501526040840152015460608201526107ec828b612664565b5288612664565b508291610796565b60405161080781612078565b600081526000838201526000604082015260006060820152828289010152018490610708565b806000528160028086526040600020015414610852575b61084d9061258e565b6106d5565b9361085f61084d9161258e565b949050610844565b506004548211156106c3565b50346102db5760403660031901126102db576004356001600160401b0381116102db576108a49036906004016120b4565b6024356001600160401b0381116102db576108c39036906004016120b4565b916108ed60405160208186516108dc8183858b0161210a565b810160038152030190205415612621565b6108f860045461258e565b8060045560405190602082018281106001600160401b03821117610bff57604052600082526040519161092a83612040565b81835260208301948552856040840152600060608401526001608084015260a0830152600060c08301524283830152600052600060205260406000209281518455518051906001600160401b038211610bff5761098a60018601546123bd565b601f8111610da6575b50602090601f8311600114610d34576109c5929160009183610b47575b50508160011b916000199060031b1c19161790565b60018401555b60408101518051906001600160401b038211610bff576109ee60028601546123bd565b601f8111610cff575b50602090601f8311600114610c8d57610a28929160009183610b475750508160011b916000199060031b1c19161790565b60028401555b606081015160038401556080810151600484015560a0810151805190600160401b8211610bff576005850154826005870155808310610c15575b5060200190600585016000526020600020916000905b828210610ad957602080898960078a8a6006840160c0820151151560ff801983541691161790550151910155610ac6600454928392816040519382858094519384920161210a565b8101600381520301902055604051908152f35b80518051906001600160401b038211610bff57610af686546123bd565b601f8111610bc2575b50602090601f8311600114610b525792610b3883600195946020948796600092610b475750508160011b916000199060031b1c19161790565b87555b01940191019092610a7e565b0151905038806109b0565b908660005260206000209160005b601f1985168110610baa575083602093600196938796938794601f19811610610b91575b505050811b018755610b3b565b015160001960f88460031b161c19169055388080610b84565b91926020600181928685015181550194019201610b60565b610bef90876000526020600020601f850160051c81019160208610610bf5575b601f0160051c0190612577565b38610aff565b9091508190610be2565b634e487b7160e01b600052604160045260246000fd5b600586016000526020600020908382015b8183018110610c36575050610a68565b80610c43600192546123bd565b80610c50575b5001610c26565b601f81118314610c665750600081555b38610c49565b600090828252610c84601f60208420920160051c8201858301612577565b81835555610c60565b9190600286016000526020600020906000935b601f1984168510610ce4576001945083601f19811610610ccb575b505050811b016002840155610a2e565b015160001960f88460031b161c19169055388080610cbb565b81810151835560209485019460019093019290910190610ca0565b610d2e90600287016000526020600020601f850160051c81019160208610610bf557601f0160051c0190612577565b386109f7565b9190600186016000526020600020906000935b601f1984168510610d8b576001945083601f19811610610d72575b505050811b0160018401556109cb565b015160001960f88460031b161c19169055388080610d62565b81810151835560209485019460019093019290910190610d47565b610dd590600187016000526020600020601f850160051c81019160208610610bf557601f0160051c0190612577565b38610993565b346102db5760a03660031901126102db576001600160401b036004356024358281116102db57610e0f9036906004016120b4565b916044358181116102db57610e289036906004016120b4565b926064358281116102db57610e419036906004016120b4565b936084358381116102db57610e5a9036906004016120b4565b938015158061124d575b610e6d90612302565b600052600190602095828752604060002091600283018551878111610bff57610e9682546123bd565b96601f978b89821161121e575b50508a908883116001146111b857610ed39291600091836111ad5750508160011b916000199060031b1c19161790565b90555b80516003840191878211610bff57610eee83546123bd565b8a88821161117e575b5050899087831160011461111a57610f279291600091836110795750508160011b916000199060031b1c19161790565b90555b80516004830191868211610bff57610f4283546123bd565b8681116110ec575b508890868311600114611084579180610f7e9260059695946000926110795750508160011b916000199060031b1c19161790565b90555b01948451938411610bff57610f9686546123bd565b838111611041575b5080928411600114610fdd5750508190610fce93600092610fd25750508160011b916000199060031b1c19161790565b9055005b0151905084806109b0565b91909383601f1981168760005284600020946000905b88838310611027575050501061100e575b505050811b019055005b015160001960f88460031b161c19169055838080611004565b858701518855909601959485019487935090810190610ff3565b61106a9087600052826000208580880160051c820192858910611070575b0160051c0190612577565b86610f9e565b9250819261105f565b015190508b806109b0565b9392918591601f19821690846000528b6000209160005b8d8282106110d65750509683600598106110bd575b505050811b019055610f81565b015160001960f88460031b161c191690558a80806110b0565b838a015185558a9690940193928301920161109b565b61111490846000528a6000208880860160051c8201928d8710611070570160051c0190612577565b89610f4a565b869291601f19831691856000528c600020928d6000905b828210611167575050841161114e575b505050811b019055610f2a565b015160001960f88460031b161c191690558a8080611141565b8385015186558b979095019493840193018e611131565b6111a6918560005289826000209181870160051c8301938710611070570160051c0190612577565b8a8a610ef7565b015190508c806109b0565b8792918c91601f1984168660005283600020936000905b82821061120557505084116111ec575b505050811b019055610ed6565b015160001960f88460031b161c191690558b80806111df565b8484015186558c979095019493840193908101906111cf565b61124691856000528a826000209181870160051c8301938710611070570160051c0190612577565b8b8b610ea3565b50600554811115610e64565b346102db5760603660031901126102db576001600160401b036004356024358281116102db5761128d9036906004016120b4565b916044358181116102db576112a69036906004016120b4565b9180151580611548575b6112b990612380565b8060005260209260008452604060002090600282019060405193868501856112e1828661259d565b03956112f5601f1997888101835282612093565b51902087604051918183018551936113248482818a019761131781878b61210a565b8101038084520182612093565b519020036113ff575b50505050506001809101938551938411610bff5761134b85546123bd565b601f81116113cf575b508092601f8511600114611388575050508190610fce9394600092610fd25750508160011b916000199060031b1c19161790565b600086815282812094939186169290915b8383106113b8575050509483600195961061100e57505050811b019055005b888501518655948501949381019391810191611399565b6113f9908660005282600020601f870160051c810191848810610bf557601f0160051c0190612577565b86611354565b61144391611418604051838188516108dc81838861210a565b60006040518381611429818b61259d565b60038152030190205560405180938192875192839161210a565b8101600381520301902055805190858211610bff5761146283546123bd565b601f8111611518575b508690601f83116001146114b35761149b9291600091836114a85750508160011b916000199060031b1c19161790565b90555b858080808761132d565b0151905089806109b0565b908583169184600052886000209260005b8a8282106115025750509084600195949392106114e9575b505050811b01905561149e565b015160001960f88460031b161c191690558880806114dc565b60018596829396860151815501950193016114c4565b611542908460005288600020601f850160051c8101918a8610610bf557601f0160051c0190612577565b8861146b565b506004548111156112b0565b346102db576020806003193601126102db576006546000916004359060015b8381111561158657602085604051908152f35b8060005282600280845260406000200154146115ab575b6115a69061258e565b611573565b936115b86115a69161258e565b94905061159d565b50346102db5760c03660031901126102db57600435906024356001600160401b0381116102db576115f59036906004016120b4565b906044356001600160401b0381116102db576116159036906004016120b4565b916064356001600160401b0381116102db576116359036906004016120b4565b6084356001600160401b0381116102db576116549036906004016120b4565b85151580611b26575b61166690612380565b61167160055461258e565b9182600555604051956116838761205c565b83875260208701978852604087019485526060870152608086015260a0850152600060c085015260008385015260a43561010085015242610120850152600052600160205260406000209383518555516001850155519283516001600160401b038111610bff576116f760028301546123bd565b601f8111611af1575b506020601f8211600114611a8257819061173393949596600092610b475750508160011b916000199060031b1c19161790565b60028201555b60608301519283516001600160401b038111610bff5761175c60038401546123bd565b601f8111611a4d575b50602094601f82116001146119e157611799929394958291600092610b475750508160011b916000199060031b1c19161790565b60038301555b60808101519283516001600160401b038111610bff576117c260048501546123bd565b601f81116119ac575b50602094601f8211600114611940576117ff929394958291600092610b475750508160011b916000199060031b1c19161790565b60048401555b6005830160a08301518051906001600160401b038211610bff5761182983546123bd565b601f811161190e575b50602090601f831160011461189e57826101209593600997959361186c93600092610b475750508160011b916000199060031b1c19161790565b90555b60c082015160068601558101516007850155610100810151600885015501519101556020600554604051908152f35b90601f198316918460005260206000209260005b8181106118f65750926001928592610120989660099a9896106118dd575b505050811b01905561186f565b015160001960f88460031b161c191690553880806118d0565b929360206001819287860151815501950193016118b2565b61193a90846000526020600020601f850160051c81019160208610610bf557601f0160051c0190612577565b38611832565b601f198216956004860160005260206000209160005b8881106119945750836001959697981061197b575b505050811b016004840155611805565b015160001960f88460031b161c1916905538808061196b565b91926020600181928685015181550194019201611956565b6119db90600486016000526020600020601f840160051c81019160208510610bf557601f0160051c0190612577565b386117cb565b601f198216956003850160005260206000209160005b888110611a3557508360019596979810611a1c575b505050811b01600383015561179f565b015160001960f88460031b161c19169055388080611a0c565b919260206001819286850151815501940192016119f7565b611a7c90600385016000526020600020601f840160051c81019160208510610bf557601f0160051c0190612577565b38611765565b6002830160005260206000209060005b601f1984168110611ad9575060019394959683601f19811610611ac0575b505050811b016002820155611739565b015160001960f88460031b161c19169055388080611ab0565b9091602060018192858b015181550193019101611a92565b611b2090600284016000526020600020601f840160051c81019160208510610bf557601f0160051c0190612577565b38611700565b5060045486111561165d565b346102db5760803660031901126102db5760043560643560246001600160401b038083116102db57366023840112156102db57826004013590611b74826122bb565b91611b826040519384612093565b80835260209586840195868660059460051b830101913683116102db57878101915b838310611dd4575050505080151580611dc8575b611bc190612380565b60005260008652604060002093600560039582356003820155604435600482015501935195600160401b8711611db3578454878655808810611d3f575b50949360005286600020936000955b878710611c1657005b8051805190868211611d2a57908a9291611c3089546123bd565b90601f91828111611cf4575b5084918311600114611c8a578260019593869593611c7093600092611c7f5750508160011b916000199060031b1c19161790565b89555b01960196019594611c0d565b015190508f806109b0565b90601f198316918a600052856000209260005b818110611cdd575091600196949291838897959310611cc5575b505050831b83018955611c73565b015160001983891b60f8161c191690558d8080611cb7565b929387600181928786015181550195019301611c9d565b611d1b908b60005286600020848087018c1c820192898810611d21575b018b1c0190612577565b8d611c3c565b92508192611d11565b84634e487b7160e01b60005260416004526000fd5b85600052878960002091820191015b818110611d5b5750611bfe565b80611d68600192546123bd565b80611d75575b5001611d4e565b601f908c8282118514611d9057505050600081555b8b611d6e565b600092611daa9185855284209201891c8201858301612577565b81835555611d8a565b50634e487b7160e01b60009081526041600452fd5b50600454811115611bb8565b82358781116102db578b91611def83928c36918701016120b4565b815201920191611ba4565b346102db5760203660031901126102db57600435611e1661249c565b5080151580611e55575b611e2990612302565b60005260016020526105a5611e4160406000206124eb565b604051918291602083526020830190612226565b50600554811115611e20565b346102db5760203660031901126102db5760043580151580611ea7575b611e8790612380565b60005260006020526006604060002001600160ff19825416179055600080f35b50600454811115611e7e565b50346102db576020806003193601126102db576004356001600160401b0381116102db5781611ee9611f059236906004016120b4565b611ef1612340565b50816040519382858094519384920161210a565b8101600381520301902054611f1b811515612380565b6000526000815260406000209160405191611f3583612040565b835483526001611f47600186016123f7565b82850152611f57600286016123f7565b6040850152600385015460608501526004850154608085015260058501805490611f80826122bb565b93611f8e6040519586612093565b82855260009182528082208186015b848410611fd15760a0890187905260068a015460ff16151560c08a015260078a0154888a0152604051806105a58b82612152565b85838192611fde856123f7565b815201920193019290611f9d565b346102db5760603660031901126102db5760043580151580612034575b61201290612302565b6000526001602052604060002060243560068201556007604435910155600080f35b50600554811115612009565b61010081019081106001600160401b03821117610bff57604052565b61014081019081106001600160401b03821117610bff57604052565b608081019081106001600160401b03821117610bff57604052565b90601f801991011681019081106001600160401b03821117610bff57604052565b81601f820112156102db578035906001600160401b038211610bff57604051926120e8601f8401601f191660200185612093565b828452602083830101116102db57816000926020809301838601378301015290565b60005b83811061211d5750506000910152565b818101518382015260200161210d565b906020916121468151809281855285808601910161210a565b601f01601f1916010190565b602091828252805183830152828101519061217b6101009283604086015261012085019061212d565b612197604083015191601f19928387830301606088015261212d565b60608301516080860152608083015160a086015260a083015195828683030160c087015286519182815281810182808560051b8401019901946000925b8584106121f857505050505050508060c060e0920151151582850152015191015290565b909192939495998580612215838e8787600197030189525161212d565b9c01940194019295949391906121d4565b9061228e61227c61226a612258610140865186526020870151602087015260408701519080604088015286019061212d565b6060860151858203606087015261212d565b6080850151848203608086015261212d565b60a084015183820360a085015261212d565b9160c081015160c083015260e081015160e083015261010080820151908301526101208091015191015290565b6001600160401b038111610bff5760051b60200190565b9181601f840112156102db578235916001600160401b0383116102db576020808501948460051b0101116102db57565b1561230957565b60405162461bcd60e51b815260206004820152600f60248201526e1218589a5d081b9bdd08199bdd5b99608a1b6044820152606490fd5b6040519061234d82612040565b600060e0838281526060602082015260606040820152826060820152826080820152606060a08201528260c08201520152565b1561238757565b60405162461bcd60e51b815260206004820152600e60248201526d155cd95c881b9bdd08199bdd5b9960921b6044820152606490fd5b90600182811c921680156123ed575b60208310146123d757565b634e487b7160e01b600052602260045260246000fd5b91607f16916123cc565b9060405191826000825461240a816123bd565b9081845260209460019160018116908160001461247a575060011461243b575b50505061243992500383612093565b565b600090815285812095935091905b818310612462575050612439935082010138808061242a565b85548884018501529485019487945091830191612449565b9250505061243994925060ff191682840152151560051b82010138808061242a565b604051906124a98261205c565b816101206000918281528260208201526060604082015260608082015260606080820152606060a08201528260c08201528260e0820152826101008201520152565b906040516124f88161205c565b610120600982948054845260018101546020850152612519600282016123f7565b604085015261252a600382016123f7565b606085015261253b600482016123f7565b608085015261254c600582016123f7565b60a0850152600681015460c0850152600781015460e085015260088101546101008501520154910152565b818110612582575050565b60008155600101612577565b60001981146102985760010190565b6000929181546125ac816123bd565b9260019180831690811561260657506001146125c9575b50505050565b9091929394506000526020906020600020906000915b8583106125f557505050500190388080806125c3565b8054858401529183019181016125df565b60ff19168452505050811515909102019150388080806125c3565b1561262857565b60405162461bcd60e51b8152602060048201526014602482015273456d61696c20616c72656164792065786973747360601b6044820152606490fd5b80518210156126785760209160051b010190565b634e487b7160e01b600052603260045260246000fd5b91908110156126785760051b0190565b919082018092116102985756fea264697066735822122024e123a6c12a20857aac0ec6488a7653c4b344a69f0866c2bf153208dda1915664736f6c63430008180033","opcodes":"PUSH1 0x80 DUP1 PUSH1 0x40 MSTORE CALLVALUE PUSH2 0x25 JUMPI PUSH1 0x0 PUSH1 0x4 SSTORE PUSH1 0x0 PUSH1 0x5 SSTORE PUSH1 0x0 PUSH1 0x6 SSTORE PUSH2 0x26E1 SWAP1 DUP2 PUSH2 0x2B DUP3 CODECOPY RETURN JUMPDEST PUSH1 0x0 DUP1 REVERT INVALID PUSH1 0x80 PUSH1 0x40 MSTORE PUSH1 0x4 CALLDATASIZE LT ISZERO PUSH2 0x12 JUMPI PUSH1 0x0 DUP1 REVERT JUMPDEST PUSH1 0xE0 PUSH1 0x0 CALLDATALOAD DUP2 SHR DUP1 PUSH4 0x1243F5FE EQ PUSH2 0x1FEC JUMPI DUP1 PUSH4 0x18046AE1 EQ PUSH2 0x1EB3 JUMPI DUP1 PUSH4 0x34382996 EQ PUSH2 0x1E61 JUMPI DUP1 PUSH4 0x3BFBC0B8 EQ PUSH2 0x1DFA JUMPI DUP1 PUSH4 0x4E0D48A7 EQ PUSH2 0x1B32 JUMPI DUP1 PUSH4 0x4F553ED7 EQ PUSH2 0x15C0 JUMPI DUP1 PUSH4 0x5B666B09 EQ PUSH2 0x1554 JUMPI DUP1 PUSH4 0x7B7C3A9B EQ PUSH2 0x1259 JUMPI DUP1 PUSH4 0x8023E768 EQ PUSH2 0xDDB JUMPI DUP1 PUSH4 0x87B162B5 EQ PUSH2 0x873 JUMPI DUP1 PUSH4 0x8D3A912F EQ PUSH2 0x6A4 JUMPI DUP1 PUSH4 0x9C196582 EQ PUSH2 0x5D0 JUMPI DUP1 PUSH4 0xB0467DEB EQ PUSH2 0x4BE JUMPI DUP1 PUSH4 0xD9F0BE45 EQ PUSH2 0x329 JUMPI DUP1 PUSH4 0xDAE52B0A EQ PUSH2 0x2E0 JUMPI PUSH4 0xFA0D2B76 EQ PUSH2 0xCD JUMPI PUSH1 0x0 DUP1 REVERT JUMPDEST CALLVALUE PUSH2 0x2DB JUMPI CALLDATASIZE PUSH1 0x3 NOT ADD SLT PUSH2 0x2DB JUMPI PUSH1 0x1 PUSH1 0x1 PUSH1 0x40 SHL SUB PUSH1 0x24 CALLDATALOAD DUP2 DUP2 GT PUSH2 0x2DB JUMPI PUSH2 0xFC SWAP1 CALLDATASIZE SWAP1 PUSH1 0x4 ADD PUSH2 0x22D2 JUMP JUMPDEST PUSH1 0x44 CALLDATALOAD DUP4 DUP2 GT PUSH2 0x2DB JUMPI PUSH2 0x114 SWAP1 CALLDATASIZE SWAP1 PUSH1 0x4 ADD PUSH2 0x22D2 JUMP JUMPDEST SWAP4 PUSH1 0x64 CALLDATALOAD DUP2 DUP2 GT PUSH2 0x2DB JUMPI PUSH2 0x12D SWAP1 CALLDATASIZE SWAP1 PUSH1 0x4 ADD PUSH2 0x22D2 JUMP JUMPDEST SWAP1 SWAP2 PUSH1 0x84 CALLDATALOAD SWAP1 DUP2 GT PUSH2 0x2DB JUMPI PUSH2 0x147 SWAP1 CALLDATASIZE SWAP1 PUSH1 0x4 ADD PUSH2 0x22D2 JUMP JUMPDEST SWAP3 SWAP1 SWAP4 PUSH1 0x4 CALLDATALOAD ISZERO ISZERO DUP1 PUSH2 0x2CD JUMPI JUMPDEST PUSH2 0x15E SWAP1 PUSH2 0x2380 JUMP JUMPDEST DUP6 ISZERO DUP1 PUSH2 0x2C4 JUMPI PUSH2 0x2AE JUMPI DUP6 DUP9 DIV SWAP6 JUMPDEST PUSH1 0x0 JUMPDEST DUP2 DUP2 LT PUSH2 0x19D JUMPI PUSH1 0x4 CALLDATALOAD PUSH1 0x0 MSTORE PUSH1 0x0 PUSH1 0x20 MSTORE PUSH1 0x40 PUSH1 0x0 KECCAK256 PUSH1 0xA4 CALLDATALOAD PUSH1 0x3 DUP3 ADD SSTORE PUSH1 0x4 PUSH1 0xC4 CALLDATALOAD SWAP2 ADD SSTORE PUSH1 0x0 DUP1 RETURN JUMPDEST PUSH2 0x1A8 DUP2 DUP4 DUP12 PUSH2 0x268E JUMP JUMPDEST CALLDATALOAD DUP2 DUP10 DUP2 MUL DIV DUP10 EQ DUP3 ISZERO OR ISZERO PUSH2 0x298 JUMPI PUSH1 0x0 JUMPDEST DUP12 DUP11 DUP1 DUP4 LT PUSH2 0x20C JUMPI POP POP POP SWAP1 PUSH1 0x1 SWAP2 PUSH2 0x1D6 DUP3 DUP9 DUP9 PUSH2 0x268E JUMP JUMPDEST CALLDATALOAD DUP2 PUSH1 0x0 MSTORE DUP4 SWAP1 PUSH1 0x20 SWAP1 DUP3 DUP3 MSTORE PUSH1 0x6 PUSH1 0x40 PUSH1 0x0 KECCAK256 ADD SSTORE PUSH2 0x1F7 DUP5 DUP12 DUP14 PUSH2 0x268E JUMP JUMPDEST CALLDATALOAD SWAP3 PUSH1 0x0 MSTORE MSTORE PUSH1 0x7 PUSH1 0x40 PUSH1 0x0 KECCAK256 ADD SSTORE ADD PUSH2 0x171 JUMP JUMPDEST DUP3 SWAP2 PUSH2 0x21F PUSH1 0x1 SWAP5 PUSH2 0x226 SWAP4 DUP9 MUL PUSH2 0x269E JUMP JUMPDEST SWAP1 DUP9 PUSH2 0x268E JUMP JUMPDEST CALLDATALOAD PUSH2 0x232 JUMPI JUMPDEST ADD PUSH2 0x1BB JUMP JUMPDEST DUP13 DUP12 PUSH1 0x6 SWAP2 PUSH2 0x283 PUSH2 0x244 DUP5 SLOAD PUSH2 0x258E JUMP JUMPDEST SWAP2 DUP3 DUP6 SSTORE DUP3 PUSH1 0x0 MSTORE PUSH2 0x27C DUP7 PUSH1 0x2 SWAP6 DUP11 DUP11 PUSH1 0x20 SWAP8 DUP10 DUP10 MSTORE PUSH1 0x40 PUSH1 0x0 KECCAK256 SWAP1 DUP2 SSTORE ADD SSTORE DUP8 SLOAD PUSH1 0x0 MSTORE PUSH1 0x4 CALLDATALOAD DUP8 PUSH1 0x40 PUSH1 0x0 KECCAK256 ADD SSTORE DUP12 MUL PUSH2 0x269E JUMP JUMPDEST SWAP1 DUP12 PUSH2 0x268E JUMP JUMPDEST CALLDATALOAD SWAP3 SLOAD PUSH1 0x0 MSTORE MSTORE PUSH1 0x3 PUSH1 0x40 PUSH1 0x0 KECCAK256 ADD SSTORE PUSH2 0x22C JUMP JUMPDEST PUSH4 0x4E487B71 PUSH1 0xE0 SHL PUSH1 0x0 MSTORE PUSH1 0x11 PUSH1 0x4 MSTORE PUSH1 0x24 PUSH1 0x0 REVERT JUMPDEST PUSH4 0x4E487B71 PUSH1 0xE0 SHL PUSH1 0x0 MSTORE PUSH1 0x12 PUSH1 0x4 MSTORE PUSH1 0x24 PUSH1 0x0 REVERT JUMPDEST POP PUSH1 0x0 SWAP6 PUSH2 0x16E JUMP JUMPDEST POP PUSH1 0x4 DUP1 SLOAD SWAP1 CALLDATALOAD GT ISZERO PUSH2 0x155 JUMP JUMPDEST PUSH1 0x0 DUP1 REVERT JUMPDEST CALLVALUE PUSH2 0x2DB JUMPI PUSH1 0x20 CALLDATASIZE PUSH1 0x3 NOT ADD SLT PUSH2 0x2DB JUMPI PUSH1 0x4 CALLDATALOAD DUP1 ISZERO ISZERO DUP1 PUSH2 0x31D JUMPI JUMPDEST PUSH2 0x306 SWAP1 PUSH2 0x2302 JUMP JUMPDEST PUSH1 0x0 MSTORE PUSH1 0x1 PUSH1 0x20 MSTORE PUSH1 0x0 PUSH1 0x1 PUSH1 0x40 DUP3 KECCAK256 ADD SSTORE PUSH1 0x0 DUP1 RETURN JUMPDEST POP PUSH1 0x5 SLOAD DUP2 GT ISZERO PUSH2 0x2FD JUMP JUMPDEST CALLVALUE PUSH2 0x2DB JUMPI PUSH1 0x20 DUP1 PUSH1 0x3 NOT CALLDATASIZE ADD SLT PUSH2 0x2DB JUMPI PUSH1 0x4 CALLDATALOAD DUP1 ISZERO ISZERO DUP1 PUSH2 0x4B2 JUMPI JUMPDEST PUSH2 0x350 SWAP1 PUSH2 0x2380 JUMP JUMPDEST PUSH1 0x5 SLOAD PUSH1 0x0 SWAP2 PUSH1 0x1 JUMPDEST DUP3 DUP2 GT ISZERO PUSH2 0x477 JUMPI POP PUSH2 0x384 PUSH2 0x36E DUP5 PUSH2 0x22BB JUMP JUMPDEST SWAP4 PUSH2 0x37C PUSH1 0x40 MLOAD SWAP6 DUP7 PUSH2 0x2093 JUMP JUMPDEST DUP1 DUP6 MSTORE PUSH2 0x22BB JUMP JUMPDEST PUSH1 0x1F NOT ADD DUP5 PUSH1 0x0 JUMPDEST DUP3 DUP2 LT PUSH2 0x461 JUMPI POP POP POP PUSH1 0x0 PUSH1 0x1 SWAP1 JUMPDEST DUP4 DUP3 GT ISZERO PUSH2 0x402 JUMPI PUSH1 0x40 DUP1 MLOAD DUP8 DUP2 MSTORE DUP7 MLOAD DUP2 DUP10 ADD DUP2 SWAP1 MSTORE PUSH1 0x0 SWAP3 PUSH1 0x5 DUP3 SWAP1 SHL DUP4 ADD DUP2 ADD SWAP2 DUP10 DUP12 ADD SWAP2 DUP12 SWAP1 DUP6 ADD JUMPDEST DUP3 DUP8 LT PUSH2 0x3D6 JUMPI DUP6 DUP6 SUB DUP7 RETURN JUMPDEST SWAP1 SWAP2 SWAP3 SWAP4 DUP3 DUP1 PUSH2 0x3F2 PUSH1 0x1 SWAP4 PUSH1 0x3F NOT DUP11 DUP3 SUB ADD DUP7 MSTORE DUP9 MLOAD PUSH2 0x2226 JUMP JUMPDEST SWAP7 ADD SWAP3 ADD SWAP7 ADD SWAP6 SWAP3 SWAP2 SWAP1 SWAP3 PUSH2 0x3C9 JUMP JUMPDEST DUP2 PUSH1 0x0 MSTORE PUSH1 0x1 DUP7 MSTORE PUSH1 0x40 PUSH1 0x0 KECCAK256 SWAP2 DUP4 PUSH1 0x1 DUP5 ADD SLOAD EQ PUSH2 0x42D JUMPI JUMPDEST PUSH2 0x427 SWAP2 SWAP3 POP PUSH2 0x258E JUMP JUMPDEST SWAP1 PUSH2 0x39C JUMP JUMPDEST PUSH2 0x458 DUP3 PUSH2 0x447 PUSH2 0x441 PUSH2 0x427 SWAP6 SWAP3 PUSH2 0x258E JUMP JUMPDEST SWAP6 PUSH2 0x24EB JUMP JUMPDEST PUSH2 0x451 DUP3 DUP11 PUSH2 0x2664 JUMP JUMPDEST MSTORE DUP8 PUSH2 0x2664 JUMP JUMPDEST POP DUP3 SWAP2 POP PUSH2 0x41C JUMP JUMPDEST PUSH2 0x469 PUSH2 0x249C JUMP JUMPDEST DUP3 DUP3 DUP9 ADD ADD MSTORE ADD DUP6 SWAP1 PUSH2 0x38C JUMP JUMPDEST DUP1 PUSH1 0x0 MSTORE PUSH1 0x1 DUP6 MSTORE DUP2 PUSH1 0x1 PUSH1 0x40 PUSH1 0x0 KECCAK256 ADD SLOAD EQ PUSH2 0x49D JUMPI JUMPDEST PUSH2 0x498 SWAP1 PUSH2 0x258E JUMP JUMPDEST PUSH2 0x359 JUMP JUMPDEST SWAP3 PUSH2 0x4AA PUSH2 0x498 SWAP2 PUSH2 0x258E JUMP JUMPDEST SWAP4 SWAP1 POP PUSH2 0x48F JUMP JUMPDEST POP PUSH1 0x4 SLOAD DUP2 GT ISZERO PUSH2 0x347 JUMP JUMPDEST POP CALLVALUE PUSH2 0x2DB JUMPI PUSH1 0x20 DUP1 PUSH1 0x3 NOT CALLDATASIZE ADD SLT PUSH2 0x2DB JUMPI PUSH1 0x4 CALLDATALOAD PUSH2 0x4DC PUSH2 0x2340 JUMP JUMPDEST POP DUP1 ISZERO ISZERO DUP1 PUSH2 0x5C4 JUMPI JUMPDEST PUSH2 0x4EF SWAP1 PUSH2 0x2380 JUMP JUMPDEST PUSH1 0x0 MSTORE PUSH1 0x0 DUP2 MSTORE PUSH1 0x40 PUSH1 0x0 KECCAK256 SWAP2 PUSH1 0x40 MLOAD SWAP2 PUSH2 0x509 DUP4 PUSH2 0x2040 JUMP JUMPDEST DUP4 SLOAD DUP4 MSTORE PUSH1 0x1 PUSH2 0x51B PUSH1 0x1 DUP7 ADD PUSH2 0x23F7 JUMP JUMPDEST DUP3 DUP6 ADD MSTORE PUSH2 0x52B PUSH1 0x2 DUP7 ADD PUSH2 0x23F7 JUMP JUMPDEST PUSH1 0x40 DUP6 ADD MSTORE PUSH1 0x3 DUP6 ADD SLOAD PUSH1 0x60 DUP6 ADD MSTORE PUSH1 0x4 DUP6 ADD SLOAD PUSH1 0x80 DUP6 ADD MSTORE PUSH1 0x5 DUP6 ADD DUP1 SLOAD SWAP1 PUSH2 0x554 DUP3 PUSH2 0x22BB JUMP JUMPDEST SWAP4 PUSH2 0x562 PUSH1 0x40 MLOAD SWAP6 DUP7 PUSH2 0x2093 JUMP JUMPDEST DUP3 DUP6 MSTORE PUSH1 0x0 SWAP2 DUP3 MSTORE DUP1 DUP3 KECCAK256 DUP2 DUP7 ADD JUMPDEST DUP5 DUP5 LT PUSH2 0x5A9 JUMPI PUSH1 0xA0 DUP10 ADD DUP8 SWAP1 MSTORE PUSH1 0x6 DUP11 ADD SLOAD PUSH1 0xFF AND ISZERO ISZERO PUSH1 0xC0 DUP11 ADD MSTORE PUSH1 0x7 DUP11 ADD SLOAD DUP9 DUP11 ADD MSTORE PUSH1 0x40 MLOAD DUP1 PUSH2 0x5A5 DUP12 DUP3 PUSH2 0x2152 JUMP JUMPDEST SUB SWAP1 RETURN JUMPDEST DUP6 DUP4 DUP2 SWAP3 PUSH2 0x5B6 DUP6 PUSH2 0x23F7 JUMP JUMPDEST DUP2 MSTORE ADD SWAP3 ADD SWAP4 ADD SWAP3 SWAP1 PUSH2 0x571 JUMP JUMPDEST POP PUSH1 0x4 SLOAD DUP2 GT ISZERO PUSH2 0x4E6 JUMP JUMPDEST CALLVALUE PUSH2 0x2DB JUMPI PUSH1 0x80 CALLDATASIZE PUSH1 0x3 NOT ADD SLT PUSH2 0x2DB JUMPI PUSH1 0x44 CALLDATALOAD PUSH1 0x4 CALLDATALOAD PUSH1 0x24 CALLDATALOAD DUP2 ISZERO ISZERO DUP1 PUSH2 0x698 JUMPI JUMPDEST PUSH2 0x5FC SWAP1 PUSH2 0x2302 JUMP JUMPDEST DUP1 ISZERO ISZERO DUP1 PUSH2 0x68C JUMPI JUMPDEST PUSH2 0x60E SWAP1 PUSH2 0x2380 JUMP JUMPDEST PUSH1 0x3 PUSH2 0x61B PUSH1 0x6 SLOAD PUSH2 0x258E JUMP JUMPDEST DUP1 PUSH1 0x6 SSTORE PUSH1 0x40 MLOAD SWAP3 PUSH2 0x62C DUP5 PUSH2 0x2078 JUMP JUMPDEST DUP2 DUP5 MSTORE PUSH1 0x20 DUP5 ADD DUP6 DUP2 MSTORE PUSH1 0x40 DUP6 ADD SWAP2 DUP3 MSTORE PUSH1 0x60 DUP6 ADD SWAP3 DUP8 DUP5 MSTORE PUSH1 0x0 MSTORE PUSH1 0x2 PUSH1 0x20 MSTORE PUSH1 0x40 PUSH1 0x0 KECCAK256 SWAP5 MLOAD DUP6 SSTORE MLOAD PUSH1 0x1 DUP6 ADD SSTORE MLOAD PUSH1 0x2 DUP5 ADD SSTORE MLOAD SWAP2 ADD SSTORE PUSH1 0x0 MSTORE PUSH1 0x1 PUSH1 0x20 MSTORE PUSH1 0x7 PUSH1 0x40 PUSH1 0x0 KECCAK256 PUSH1 0x64 CALLDATALOAD PUSH1 0x6 DUP3 ADD SSTORE ADD SSTORE PUSH1 0x20 PUSH1 0x6 SLOAD PUSH1 0x40 MLOAD SWAP1 DUP2 MSTORE RETURN JUMPDEST POP PUSH1 0x4 SLOAD DUP2 GT ISZERO PUSH2 0x605 JUMP JUMPDEST POP PUSH1 0x5 SLOAD DUP3 GT ISZERO PUSH2 0x5F3 JUMP JUMPDEST CALLVALUE PUSH2 0x2DB JUMPI PUSH1 0x20 DUP1 PUSH1 0x3 NOT CALLDATASIZE ADD SLT PUSH2 0x2DB JUMPI PUSH1 0x4 CALLDATALOAD SWAP1 DUP2 ISZERO ISZERO DUP1 PUSH2 0x867 JUMPI JUMPDEST PUSH2 0x6CC SWAP1 PUSH2 0x2380 JUMP JUMPDEST PUSH1 0x6 SLOAD PUSH1 0x0 SWAP3 PUSH1 0x1 JUMPDEST DUP3 DUP2 GT ISZERO PUSH2 0x82D JUMPI POP PUSH2 0x700 PUSH2 0x6EA DUP6 PUSH2 0x22BB JUMP JUMPDEST SWAP5 PUSH2 0x6F8 PUSH1 0x40 MLOAD SWAP7 DUP8 PUSH2 0x2093 JUMP JUMPDEST DUP1 DUP7 MSTORE PUSH2 0x22BB JUMP JUMPDEST PUSH1 0x1F NOT ADD DUP4 PUSH1 0x0 JUMPDEST DUP3 DUP2 LT PUSH2 0x7FB JUMPI POP POP POP PUSH1 0x0 PUSH1 0x1 SWAP1 JUMPDEST DUP4 DUP3 GT ISZERO PUSH2 0x77B JUMPI PUSH1 0x40 DUP1 MLOAD DUP7 DUP2 MSTORE DUP8 MLOAD DUP2 DUP9 ADD DUP2 SWAP1 MSTORE DUP9 DUP9 ADD SWAP3 DUP3 ADD SWAP1 DUP9 PUSH1 0x0 JUMPDEST DUP3 DUP2 LT PUSH2 0x747 JUMPI DUP5 DUP5 SUB DUP6 RETURN JUMPDEST DUP6 MLOAD DUP1 MLOAD DUP6 MSTORE DUP1 DUP4 ADD MLOAD DUP6 DUP5 ADD MSTORE PUSH1 0x40 DUP1 DUP3 ADD MLOAD SWAP1 DUP7 ADD MSTORE PUSH1 0x60 SWAP1 DUP2 ADD MLOAD SWAP1 DUP6 ADD MSTORE SWAP5 DUP2 ADD SWAP5 PUSH1 0x80 SWAP1 SWAP4 ADD SWAP3 PUSH1 0x1 ADD PUSH2 0x73A JUMP JUMPDEST DUP2 PUSH1 0x0 MSTORE PUSH1 0x2 SWAP2 DUP3 DUP7 MSTORE PUSH1 0x40 PUSH1 0x0 KECCAK256 SWAP3 DUP4 ADD SLOAD DUP5 DUP2 EQ PUSH2 0x7A8 JUMPI JUMPDEST POP PUSH2 0x7A2 SWAP2 SWAP3 POP PUSH2 0x258E JUMP JUMPDEST SWAP1 PUSH2 0x718 JUMP JUMPDEST PUSH2 0x7A2 SWAP3 PUSH2 0x7F3 SWAP2 PUSH1 0x3 PUSH2 0x7BB DUP4 PUSH2 0x258E JUMP JUMPDEST SWAP7 PUSH1 0x40 MLOAD SWAP3 PUSH2 0x7C9 DUP5 PUSH2 0x2078 JUMP JUMPDEST DUP2 SLOAD DUP5 MSTORE PUSH1 0x1 DUP3 ADD SLOAD DUP13 DUP6 ADD MSTORE PUSH1 0x40 DUP5 ADD MSTORE ADD SLOAD PUSH1 0x60 DUP3 ADD MSTORE PUSH2 0x7EC DUP3 DUP12 PUSH2 0x2664 JUMP JUMPDEST MSTORE DUP9 PUSH2 0x2664 JUMP JUMPDEST POP DUP3 SWAP2 PUSH2 0x796 JUMP JUMPDEST PUSH1 0x40 MLOAD PUSH2 0x807 DUP2 PUSH2 0x2078 JUMP JUMPDEST PUSH1 0x0 DUP2 MSTORE PUSH1 0x0 DUP4 DUP3 ADD MSTORE PUSH1 0x0 PUSH1 0x40 DUP3 ADD MSTORE PUSH1 0x0 PUSH1 0x60 DUP3 ADD MSTORE DUP3 DUP3 DUP10 ADD ADD MSTORE ADD DUP5 SWAP1 PUSH2 0x708 JUMP JUMPDEST DUP1 PUSH1 0x0 MSTORE DUP2 PUSH1 0x2 DUP1 DUP7 MSTORE PUSH1 0x40 PUSH1 0x0 KECCAK256 ADD SLOAD EQ PUSH2 0x852 JUMPI JUMPDEST PUSH2 0x84D SWAP1 PUSH2 0x258E JUMP JUMPDEST PUSH2 0x6D5 JUMP JUMPDEST SWAP4 PUSH2 0x85F PUSH2 0x84D SWAP2 PUSH2 0x258E JUMP JUMPDEST SWAP5 SWAP1 POP PUSH2 0x844 JUMP JUMPDEST POP PUSH1 0x4 SLOAD DUP3 GT ISZERO PUSH2 0x6C3 JUMP JUMPDEST POP CALLVALUE PUSH2 0x2DB JUMPI PUSH1 0x40 CALLDATASIZE PUSH1 0x3 NOT ADD SLT PUSH2 0x2DB JUMPI PUSH1 0x4 CALLDATALOAD PUSH1 0x1 PUSH1 0x1 PUSH1 0x40 SHL SUB DUP2 GT PUSH2 0x2DB JUMPI PUSH2 0x8A4 SWAP1 CALLDATASIZE SWAP1 PUSH1 0x4 ADD PUSH2 0x20B4 JUMP JUMPDEST PUSH1 0x24 CALLDATALOAD PUSH1 0x1 PUSH1 0x1 PUSH1 0x40 SHL SUB DUP2 GT PUSH2 0x2DB JUMPI PUSH2 0x8C3 SWAP1 CALLDATASIZE SWAP1 PUSH1 0x4 ADD PUSH2 0x20B4 JUMP JUMPDEST SWAP2 PUSH2 0x8ED PUSH1 0x40 MLOAD PUSH1 0x20 DUP2 DUP7 MLOAD PUSH2 0x8DC DUP2 DUP4 DUP6 DUP12 ADD PUSH2 0x210A JUMP JUMPDEST DUP2 ADD PUSH1 0x3 DUP2 MSTORE SUB ADD SWAP1 KECCAK256 SLOAD ISZERO PUSH2 0x2621 JUMP JUMPDEST PUSH2 0x8F8 PUSH1 0x4 SLOAD PUSH2 0x258E JUMP JUMPDEST DUP1 PUSH1 0x4 SSTORE PUSH1 0x40 MLOAD SWAP1 PUSH1 0x20 DUP3 ADD DUP3 DUP2 LT PUSH1 0x1 PUSH1 0x1 PUSH1 0x40 SHL SUB DUP3 GT OR PUSH2 0xBFF JUMPI PUSH1 0x40 MSTORE PUSH1 0x0 DUP3 MSTORE PUSH1 0x40 MLOAD SWAP2 PUSH2 0x92A DUP4 PUSH2 0x2040 JUMP JUMPDEST DUP2 DUP4 MSTORE PUSH1 0x20 DUP4 ADD SWAP5 DUP6 MSTORE DUP6 PUSH1 0x40 DUP5 ADD MSTORE PUSH1 0x0 PUSH1 0x60 DUP5 ADD MSTORE PUSH1 0x1 PUSH1 0x80 DUP5 ADD MSTORE PUSH1 0xA0 DUP4 ADD MSTORE PUSH1 0x0 PUSH1 0xC0 DUP4 ADD MSTORE TIMESTAMP DUP4 DUP4 ADD MSTORE PUSH1 0x0 MSTORE PUSH1 0x0 PUSH1 0x20 MSTORE PUSH1 0x40 PUSH1 0x0 KECCAK256 SWAP3 DUP2 MLOAD DUP5 SSTORE MLOAD DUP1 MLOAD SWAP1 PUSH1 0x1 PUSH1 0x1 PUSH1 0x40 SHL SUB DUP3 GT PUSH2 0xBFF JUMPI PUSH2 0x98A PUSH1 0x1 DUP7 ADD SLOAD PUSH2 0x23BD JUMP JUMPDEST PUSH1 0x1F DUP2 GT PUSH2 0xDA6 JUMPI JUMPDEST POP PUSH1 0x20 SWAP1 PUSH1 0x1F DUP4 GT PUSH1 0x1 EQ PUSH2 0xD34 JUMPI PUSH2 0x9C5 SWAP3 SWAP2 PUSH1 0x0 SWAP2 DUP4 PUSH2 0xB47 JUMPI JUMPDEST POP POP DUP2 PUSH1 0x1 SHL SWAP2 PUSH1 0x0 NOT SWAP1 PUSH1 0x3 SHL SHR NOT AND OR SWAP1 JUMP JUMPDEST PUSH1 0x1 DUP5 ADD SSTORE JUMPDEST PUSH1 0x40 DUP2 ADD MLOAD DUP1 MLOAD SWAP1 PUSH1 0x1 PUSH1 0x1 PUSH1 0x40 SHL SUB DUP3 GT PUSH2 0xBFF JUMPI PUSH2 0x9EE PUSH1 0x2 DUP7 ADD SLOAD PUSH2 0x23BD JUMP JUMPDEST PUSH1 0x1F DUP2 GT PUSH2 0xCFF JUMPI JUMPDEST POP PUSH1 0x20 SWAP1 PUSH1 0x1F DUP4 GT PUSH1 0x1 EQ PUSH2 0xC8D JUMPI PUSH2 0xA28 SWAP3 SWAP2 PUSH1 0x0 SWAP2 DUP4 PUSH2 0xB47 JUMPI POP POP DUP2 PUSH1 0x1 SHL SWAP2 PUSH1 0x0 NOT SWAP1 PUSH1 0x3 SHL SHR NOT AND OR SWAP1 JUMP JUMPDEST PUSH1 0x2 DUP5 ADD SSTORE JUMPDEST PUSH1 0x60 DUP2 ADD MLOAD PUSH1 0x3 DUP5 ADD SSTORE PUSH1 0x80 DUP2 ADD MLOAD PUSH1 0x4 DUP5 ADD SSTORE PUSH1 0xA0 DUP2 ADD MLOAD DUP1 MLOAD SWAP1 PUSH1 0x1 PUSH1 0x40 SHL DUP3 GT PUSH2 0xBFF JUMPI PUSH1 0x5 DUP6 ADD SLOAD DUP3 PUSH1 0x5 DUP8 ADD SSTORE DUP1 DUP4 LT PUSH2 0xC15 JUMPI JUMPDEST POP PUSH1 0x20 ADD SWAP1 PUSH1 0x5 DUP6 ADD PUSH1 0x0 MSTORE PUSH1 0x20 PUSH1 0x0 KECCAK256 SWAP2 PUSH1 0x0 SWAP1 JUMPDEST DUP3 DUP3 LT PUSH2 0xAD9 JUMPI PUSH1 0x20 DUP1 DUP10 DUP10 PUSH1 0x7 DUP11 DUP11 PUSH1 0x6 DUP5 ADD PUSH1 0xC0 DUP3 ADD MLOAD ISZERO ISZERO PUSH1 0xFF DUP1 NOT DUP4 SLOAD AND SWAP2 AND OR SWAP1 SSTORE ADD MLOAD SWAP2 ADD SSTORE PUSH2 0xAC6 PUSH1 0x4 SLOAD SWAP3 DUP4 SWAP3 DUP2 PUSH1 0x40 MLOAD SWAP4 DUP3 DUP6 DUP1 SWAP5 MLOAD SWAP4 DUP5 SWAP3 ADD PUSH2 0x210A JUMP JUMPDEST DUP2 ADD PUSH1 0x3 DUP2 MSTORE SUB ADD SWAP1 KECCAK256 SSTORE PUSH1 0x40 MLOAD SWAP1 DUP2 MSTORE RETURN JUMPDEST DUP1 MLOAD DUP1 MLOAD SWAP1 PUSH1 0x1 PUSH1 0x1 PUSH1 0x40 SHL SUB DUP3 GT PUSH2 0xBFF JUMPI PUSH2 0xAF6 DUP7 SLOAD PUSH2 0x23BD JUMP JUMPDEST PUSH1 0x1F DUP2 GT PUSH2 0xBC2 JUMPI JUMPDEST POP PUSH1 0x20 SWAP1 PUSH1 0x1F DUP4 GT PUSH1 0x1 EQ PUSH2 0xB52 JUMPI SWAP3 PUSH2 0xB38 DUP4 PUSH1 0x1 SWAP6 SWAP5 PUSH1 0x20 SWAP5 DUP8 SWAP7 PUSH1 0x0 SWAP3 PUSH2 0xB47 JUMPI POP POP DUP2 PUSH1 0x1 SHL SWAP2 PUSH1 0x0 NOT SWAP1 PUSH1 0x3 SHL SHR NOT AND OR SWAP1 JUMP JUMPDEST DUP8 SSTORE JUMPDEST ADD SWAP5 ADD SWAP2 ADD SWAP1 SWAP3 PUSH2 0xA7E JUMP JUMPDEST ADD MLOAD SWAP1 POP CODESIZE DUP1 PUSH2 0x9B0 JUMP JUMPDEST SWAP1 DUP7 PUSH1 0x0 MSTORE PUSH1 0x20 PUSH1 0x0 KECCAK256 SWAP2 PUSH1 0x0 JUMPDEST PUSH1 0x1F NOT DUP6 AND DUP2 LT PUSH2 0xBAA JUMPI POP DUP4 PUSH1 0x20 SWAP4 PUSH1 0x1 SWAP7 SWAP4 DUP8 SWAP7 SWAP4 DUP8 SWAP5 PUSH1 0x1F NOT DUP2 AND LT PUSH2 0xB91 JUMPI JUMPDEST POP POP POP DUP2 SHL ADD DUP8 SSTORE PUSH2 0xB3B JUMP JUMPDEST ADD MLOAD PUSH1 0x0 NOT PUSH1 0xF8 DUP5 PUSH1 0x3 SHL AND SHR NOT AND SWAP1 SSTORE CODESIZE DUP1 DUP1 PUSH2 0xB84 JUMP JUMPDEST SWAP2 SWAP3 PUSH1 0x20 PUSH1 0x1 DUP2 SWAP3 DUP7 DUP6 ADD MLOAD DUP2 SSTORE ADD SWAP5 ADD SWAP3 ADD PUSH2 0xB60 JUMP JUMPDEST PUSH2 0xBEF SWAP1 DUP8 PUSH1 0x0 MSTORE PUSH1 0x20 PUSH1 0x0 KECCAK256 PUSH1 0x1F DUP6 ADD PUSH1 0x5 SHR DUP2 ADD SWAP2 PUSH1 0x20 DUP7 LT PUSH2 0xBF5 JUMPI JUMPDEST PUSH1 0x1F ADD PUSH1 0x5 SHR ADD SWAP1 PUSH2 0x2577 JUMP JUMPDEST CODESIZE PUSH2 0xAFF JUMP JUMPDEST SWAP1 SWAP2 POP DUP2 SWAP1 PUSH2 0xBE2 JUMP JUMPDEST PUSH4 0x4E487B71 PUSH1 0xE0 SHL PUSH1 0x0 MSTORE PUSH1 0x41 PUSH1 0x4 MSTORE PUSH1 0x24 PUSH1 0x0 REVERT JUMPDEST PUSH1 0x5 DUP7 ADD PUSH1 0x0 MSTORE PUSH1 0x20 PUSH1 0x0 KECCAK256 SWAP1 DUP4 DUP3 ADD JUMPDEST DUP2 DUP4 ADD DUP2 LT PUSH2 0xC36 JUMPI POP POP PUSH2 0xA68 JUMP JUMPDEST DUP1 PUSH2 0xC43 PUSH1 0x1 SWAP3 SLOAD PUSH2 0x23BD JUMP JUMPDEST DUP1 PUSH2 0xC50 JUMPI JUMPDEST POP ADD PUSH2 0xC26 JUMP JUMPDEST PUSH1 0x1F DUP2 GT DUP4 EQ PUSH2 0xC66 JUMPI POP PUSH1 0x0 DUP2 SSTORE JUMPDEST CODESIZE PUSH2 0xC49 JUMP JUMPDEST PUSH1 0x0 SWAP1 DUP3 DUP3 MSTORE PUSH2 0xC84 PUSH1 0x1F PUSH1 0x20 DUP5 KECCAK256 SWAP3 ADD PUSH1 0x5 SHR DUP3 ADD DUP6 DUP4 ADD PUSH2 0x2577 JUMP JUMPDEST DUP2 DUP4 SSTORE SSTORE PUSH2 0xC60 JUMP JUMPDEST SWAP2 SWAP1 PUSH1 0x2 DUP7 ADD PUSH1 0x0 MSTORE PUSH1 0x20 PUSH1 0x0 KECCAK256 SWAP1 PUSH1 0x0 SWAP4 JUMPDEST PUSH1 0x1F NOT DUP5 AND DUP6 LT PUSH2 0xCE4 JUMPI PUSH1 0x1 SWAP5 POP DUP4 PUSH1 0x1F NOT DUP2 AND LT PUSH2 0xCCB JUMPI JUMPDEST POP POP POP DUP2 SHL ADD PUSH1 0x2 DUP5 ADD SSTORE PUSH2 0xA2E JUMP JUMPDEST ADD MLOAD PUSH1 0x0 NOT PUSH1 0xF8 DUP5 PUSH1 0x3 SHL AND SHR NOT AND SWAP1 SSTORE CODESIZE DUP1 DUP1 PUSH2 0xCBB JUMP JUMPDEST DUP2 DUP2 ADD MLOAD DUP4 SSTORE PUSH1 0x20 SWAP5 DUP6 ADD SWAP5 PUSH1 0x1 SWAP1 SWAP4 ADD SWAP3 SWAP1 SWAP2 ADD SWAP1 PUSH2 0xCA0 JUMP JUMPDEST PUSH2 0xD2E SWAP1 PUSH1 0x2 DUP8 ADD PUSH1 0x0 MSTORE PUSH1 0x20 PUSH1 0x0 KECCAK256 PUSH1 0x1F DUP6 ADD PUSH1 0x5 SHR DUP2 ADD SWAP2 PUSH1 0x20 DUP7 LT PUSH2 0xBF5 JUMPI PUSH1 0x1F ADD PUSH1 0x5 SHR ADD SWAP1 PUSH2 0x2577 JUMP JUMPDEST CODESIZE PUSH2 0x9F7 JUMP JUMPDEST SWAP2 SWAP1 PUSH1 0x1 DUP7 ADD PUSH1 0x0 MSTORE PUSH1 0x20 PUSH1 0x0 KECCAK256 SWAP1 PUSH1 0x0 SWAP4 JUMPDEST PUSH1 0x1F NOT DUP5 AND DUP6 LT PUSH2 0xD8B JUMPI PUSH1 0x1 SWAP5 POP DUP4 PUSH1 0x1F NOT DUP2 AND LT PUSH2 0xD72 JUMPI JUMPDEST POP POP POP DUP2 SHL ADD PUSH1 0x1 DUP5 ADD SSTORE PUSH2 0x9CB JUMP JUMPDEST ADD MLOAD PUSH1 0x0 NOT PUSH1 0xF8 DUP5 PUSH1 0x3 SHL AND SHR NOT AND SWAP1 SSTORE CODESIZE DUP1 DUP1 PUSH2 0xD62 JUMP JUMPDEST DUP2 DUP2 ADD MLOAD DUP4 SSTORE PUSH1 0x20 SWAP5 DUP6 ADD SWAP5 PUSH1 0x1 SWAP1 SWAP4 ADD SWAP3 SWAP1 SWAP2 ADD SWAP1 PUSH2 0xD47 JUMP JUMPDEST PUSH2 0xDD5 SWAP1 PUSH1 0x1 DUP8 ADD PUSH1 0x0 MSTORE PUSH1 0x20 PUSH1 0x0 KECCAK256 PUSH1 0x1F DUP6 ADD PUSH1 0x5 SHR DUP2 ADD SWAP2 PUSH1 0x20 DUP7 LT PUSH2 0xBF5 JUMPI PUSH1 0x1F ADD PUSH1 0x5 SHR ADD SWAP1 PUSH2 0x2577 JUMP JUMPDEST CODESIZE PUSH2 0x993 JUMP JUMPDEST CALLVALUE PUSH2 0x2DB JUMPI PUSH1 0xA0 CALLDATASIZE PUSH1 0x3 NOT ADD SLT PUSH2 0x2DB JUMPI PUSH1 0x1 PUSH1 0x1 PUSH1 0x40 SHL SUB PUSH1 0x4 CALLDATALOAD PUSH1 0x24 CALLDATALOAD DUP3 DUP2 GT PUSH2 0x2DB JUMPI PUSH2 0xE0F SWAP1 CALLDATASIZE SWAP1 PUSH1 0x4 ADD PUSH2 0x20B4 JUMP JUMPDEST SWAP2 PUSH1 0x44 CALLDATALOAD DUP2 DUP2 GT PUSH2 0x2DB JUMPI PUSH2 0xE28 SWAP1 CALLDATASIZE SWAP1 PUSH1 0x4 ADD PUSH2 0x20B4 JUMP JUMPDEST SWAP3 PUSH1 0x64 CALLDATALOAD DUP3 DUP2 GT PUSH2 0x2DB JUMPI PUSH2 0xE41 SWAP1 CALLDATASIZE SWAP1 PUSH1 0x4 ADD PUSH2 0x20B4 JUMP JUMPDEST SWAP4 PUSH1 0x84 CALLDATALOAD DUP4 DUP2 GT PUSH2 0x2DB JUMPI PUSH2 0xE5A SWAP1 CALLDATASIZE SWAP1 PUSH1 0x4 ADD PUSH2 0x20B4 JUMP JUMPDEST SWAP4 DUP1 ISZERO ISZERO DUP1 PUSH2 0x124D JUMPI JUMPDEST PUSH2 0xE6D SWAP1 PUSH2 0x2302 JUMP JUMPDEST PUSH1 0x0 MSTORE PUSH1 0x1 SWAP1 PUSH1 0x20 SWAP6 DUP3 DUP8 MSTORE PUSH1 0x40 PUSH1 0x0 KECCAK256 SWAP2 PUSH1 0x2 DUP4 ADD DUP6 MLOAD DUP8 DUP2 GT PUSH2 0xBFF JUMPI PUSH2 0xE96 DUP3 SLOAD PUSH2 0x23BD JUMP JUMPDEST SWAP7 PUSH1 0x1F SWAP8 DUP12 DUP10 DUP3 GT PUSH2 0x121E JUMPI JUMPDEST POP POP DUP11 SWAP1 DUP9 DUP4 GT PUSH1 0x1 EQ PUSH2 0x11B8 JUMPI PUSH2 0xED3 SWAP3 SWAP2 PUSH1 0x0 SWAP2 DUP4 PUSH2 0x11AD JUMPI POP POP DUP2 PUSH1 0x1 SHL SWAP2 PUSH1 0x0 NOT SWAP1 PUSH1 0x3 SHL SHR NOT AND OR SWAP1 JUMP JUMPDEST SWAP1 SSTORE JUMPDEST DUP1 MLOAD PUSH1 0x3 DUP5 ADD SWAP2 DUP8 DUP3 GT PUSH2 0xBFF JUMPI PUSH2 0xEEE DUP4 SLOAD PUSH2 0x23BD JUMP JUMPDEST DUP11 DUP9 DUP3 GT PUSH2 0x117E JUMPI JUMPDEST POP POP DUP10 SWAP1 DUP8 DUP4 GT PUSH1 0x1 EQ PUSH2 0x111A JUMPI PUSH2 0xF27 SWAP3 SWAP2 PUSH1 0x0 SWAP2 DUP4 PUSH2 0x1079 JUMPI POP POP DUP2 PUSH1 0x1 SHL SWAP2 PUSH1 0x0 NOT SWAP1 PUSH1 0x3 SHL SHR NOT AND OR SWAP1 JUMP JUMPDEST SWAP1 SSTORE JUMPDEST DUP1 MLOAD PUSH1 0x4 DUP4 ADD SWAP2 DUP7 DUP3 GT PUSH2 0xBFF JUMPI PUSH2 0xF42 DUP4 SLOAD PUSH2 0x23BD JUMP JUMPDEST DUP7 DUP2 GT PUSH2 0x10EC JUMPI JUMPDEST POP DUP9 SWAP1 DUP7 DUP4 GT PUSH1 0x1 EQ PUSH2 0x1084 JUMPI SWAP2 DUP1 PUSH2 0xF7E SWAP3 PUSH1 0x5 SWAP7 SWAP6 SWAP5 PUSH1 0x0 SWAP3 PUSH2 0x1079 JUMPI POP POP DUP2 PUSH1 0x1 SHL SWAP2 PUSH1 0x0 NOT SWAP1 PUSH1 0x3 SHL SHR NOT AND OR SWAP1 JUMP JUMPDEST SWAP1 SSTORE JUMPDEST ADD SWAP5 DUP5 MLOAD SWAP4 DUP5 GT PUSH2 0xBFF JUMPI PUSH2 0xF96 DUP7 SLOAD PUSH2 0x23BD JUMP JUMPDEST DUP4 DUP2 GT PUSH2 0x1041 JUMPI JUMPDEST POP DUP1 SWAP3 DUP5 GT PUSH1 0x1 EQ PUSH2 0xFDD JUMPI POP POP DUP2 SWAP1 PUSH2 0xFCE SWAP4 PUSH1 0x0 SWAP3 PUSH2 0xFD2 JUMPI POP POP DUP2 PUSH1 0x1 SHL SWAP2 PUSH1 0x0 NOT SWAP1 PUSH1 0x3 SHL SHR NOT AND OR SWAP1 JUMP JUMPDEST SWAP1 SSTORE STOP JUMPDEST ADD MLOAD SWAP1 POP DUP5 DUP1 PUSH2 0x9B0 JUMP JUMPDEST SWAP2 SWAP1 SWAP4 DUP4 PUSH1 0x1F NOT DUP2 AND DUP8 PUSH1 0x0 MSTORE DUP5 PUSH1 0x0 KECCAK256 SWAP5 PUSH1 0x0 SWAP1 JUMPDEST DUP9 DUP4 DUP4 LT PUSH2 0x1027 JUMPI POP POP POP LT PUSH2 0x100E JUMPI JUMPDEST POP POP POP DUP2 SHL ADD SWAP1 SSTORE STOP JUMPDEST ADD MLOAD PUSH1 0x0 NOT PUSH1 0xF8 DUP5 PUSH1 0x3 SHL AND SHR NOT AND SWAP1 SSTORE DUP4 DUP1 DUP1 PUSH2 0x1004 JUMP JUMPDEST DUP6 DUP8 ADD MLOAD DUP9 SSTORE SWAP1 SWAP7 ADD SWAP6 SWAP5 DUP6 ADD SWAP5 DUP8 SWAP4 POP SWAP1 DUP2 ADD SWAP1 PUSH2 0xFF3 JUMP JUMPDEST PUSH2 0x106A SWAP1 DUP8 PUSH1 0x0 MSTORE DUP3 PUSH1 0x0 KECCAK256 DUP6 DUP1 DUP9 ADD PUSH1 0x5 SHR DUP3 ADD SWAP3 DUP6 DUP10 LT PUSH2 0x1070 JUMPI JUMPDEST ADD PUSH1 0x5 SHR ADD SWAP1 PUSH2 0x2577 JUMP JUMPDEST DUP7 PUSH2 0xF9E JUMP JUMPDEST SWAP3 POP DUP2 SWAP3 PUSH2 0x105F JUMP JUMPDEST ADD MLOAD SWAP1 POP DUP12 DUP1 PUSH2 0x9B0 JUMP JUMPDEST SWAP4 SWAP3 SWAP2 DUP6 SWAP2 PUSH1 0x1F NOT DUP3 AND SWAP1 DUP5 PUSH1 0x0 MSTORE DUP12 PUSH1 0x0 KECCAK256 SWAP2 PUSH1 0x0 JUMPDEST DUP14 DUP3 DUP3 LT PUSH2 0x10D6 JUMPI POP POP SWAP7 DUP4 PUSH1 0x5 SWAP9 LT PUSH2 0x10BD JUMPI JUMPDEST POP POP POP DUP2 SHL ADD SWAP1 SSTORE PUSH2 0xF81 JUMP JUMPDEST ADD MLOAD PUSH1 0x0 NOT PUSH1 0xF8 DUP5 PUSH1 0x3 SHL AND SHR NOT AND SWAP1 SSTORE DUP11 DUP1 DUP1 PUSH2 0x10B0 JUMP JUMPDEST DUP4 DUP11 ADD MLOAD DUP6 SSTORE DUP11 SWAP7 SWAP1 SWAP5 ADD SWAP4 SWAP3 DUP4 ADD SWAP3 ADD PUSH2 0x109B JUMP JUMPDEST PUSH2 0x1114 SWAP1 DUP5 PUSH1 0x0 MSTORE DUP11 PUSH1 0x0 KECCAK256 DUP9 DUP1 DUP7 ADD PUSH1 0x5 SHR DUP3 ADD SWAP3 DUP14 DUP8 LT PUSH2 0x1070 JUMPI ADD PUSH1 0x5 SHR ADD SWAP1 PUSH2 0x2577 JUMP JUMPDEST DUP10 PUSH2 0xF4A JUMP JUMPDEST DUP7 SWAP3 SWAP2 PUSH1 0x1F NOT DUP4 AND SWAP2 DUP6 PUSH1 0x0 MSTORE DUP13 PUSH1 0x0 KECCAK256 SWAP3 DUP14 PUSH1 0x0 SWAP1 JUMPDEST DUP3 DUP3 LT PUSH2 0x1167 JUMPI POP POP DUP5 GT PUSH2 0x114E JUMPI JUMPDEST POP POP POP DUP2 SHL ADD SWAP1 SSTORE PUSH2 0xF2A JUMP JUMPDEST ADD MLOAD PUSH1 0x0 NOT PUSH1 0xF8 DUP5 PUSH1 0x3 SHL AND SHR NOT AND SWAP1 SSTORE DUP11 DUP1 DUP1 PUSH2 0x1141 JUMP JUMPDEST DUP4 DUP6 ADD MLOAD DUP7 SSTORE DUP12 SWAP8 SWAP1 SWAP6 ADD SWAP5 SWAP4 DUP5 ADD SWAP4 ADD DUP15 PUSH2 0x1131 JUMP JUMPDEST PUSH2 0x11A6 SWAP2 DUP6 PUSH1 0x0 MSTORE DUP10 DUP3 PUSH1 0x0 KECCAK256 SWAP2 DUP2 DUP8 ADD PUSH1 0x5 SHR DUP4 ADD SWAP4 DUP8 LT PUSH2 0x1070 JUMPI ADD PUSH1 0x5 SHR ADD SWAP1 PUSH2 0x2577 JUMP JUMPDEST DUP11 DUP11 PUSH2 0xEF7 JUMP JUMPDEST ADD MLOAD SWAP1 POP DUP13 DUP1 PUSH2 0x9B0 JUMP JUMPDEST DUP8 SWAP3 SWAP2 DUP13 SWAP2 PUSH1 0x1F NOT DUP5 AND DUP7 PUSH1 0x0 MSTORE DUP4 PUSH1 0x0 KECCAK256 SWAP4 PUSH1 0x0 SWAP1 JUMPDEST DUP3 DUP3 LT PUSH2 0x1205 JUMPI POP POP DUP5 GT PUSH2 0x11EC JUMPI JUMPDEST POP POP POP DUP2 SHL ADD SWAP1 SSTORE PUSH2 0xED6 JUMP JUMPDEST ADD MLOAD PUSH1 0x0 NOT PUSH1 0xF8 DUP5 PUSH1 0x3 SHL AND SHR NOT AND SWAP1 SSTORE DUP12 DUP1 DUP1 PUSH2 0x11DF JUMP JUMPDEST DUP5 DUP5 ADD MLOAD DUP7 SSTORE DUP13 SWAP8 SWAP1 SWAP6 ADD SWAP5 SWAP4 DUP5 ADD SWAP4 SWAP1 DUP2 ADD SWAP1 PUSH2 0x11CF JUMP JUMPDEST PUSH2 0x1246 SWAP2 DUP6 PUSH1 0x0 MSTORE DUP11 DUP3 PUSH1 0x0 KECCAK256 SWAP2 DUP2 DUP8 ADD PUSH1 0x5 SHR DUP4 ADD SWAP4 DUP8 LT PUSH2 0x1070 JUMPI ADD PUSH1 0x5 SHR ADD SWAP1 PUSH2 0x2577 JUMP JUMPDEST DUP12 DUP12 PUSH2 0xEA3 JUMP JUMPDEST POP PUSH1 0x5 SLOAD DUP2 GT ISZERO PUSH2 0xE64 JUMP JUMPDEST CALLVALUE PUSH2 0x2DB JUMPI PUSH1 0x60 CALLDATASIZE PUSH1 0x3 NOT ADD SLT PUSH2 0x2DB JUMPI PUSH1 0x1 PUSH1 0x1 PUSH1 0x40 SHL SUB PUSH1 0x4 CALLDATALOAD PUSH1 0x24 CALLDATALOAD DUP3 DUP2 GT PUSH2 0x2DB JUMPI PUSH2 0x128D SWAP1 CALLDATASIZE SWAP1 PUSH1 0x4 ADD PUSH2 0x20B4 JUMP JUMPDEST SWAP2 PUSH1 0x44 CALLDATALOAD DUP2 DUP2 GT PUSH2 0x2DB JUMPI PUSH2 0x12A6 SWAP1 CALLDATASIZE SWAP1 PUSH1 0x4 ADD PUSH2 0x20B4 JUMP JUMPDEST SWAP2 DUP1 ISZERO ISZERO DUP1 PUSH2 0x1548 JUMPI JUMPDEST PUSH2 0x12B9 SWAP1 PUSH2 0x2380 JUMP JUMPDEST DUP1 PUSH1 0x0 MSTORE PUSH1 0x20 SWAP3 PUSH1 0x0 DUP5 MSTORE PUSH1 0x40 PUSH1 0x0 KECCAK256 SWAP1 PUSH1 0x2 DUP3 ADD SWAP1 PUSH1 0x40 MLOAD SWAP4 DUP7 DUP6 ADD DUP6 PUSH2 0x12E1 DUP3 DUP7 PUSH2 0x259D JUMP JUMPDEST SUB SWAP6 PUSH2 0x12F5 PUSH1 0x1F NOT SWAP8 DUP9 DUP2 ADD DUP4 MSTORE DUP3 PUSH2 0x2093 JUMP JUMPDEST MLOAD SWAP1 KECCAK256 DUP8 PUSH1 0x40 MLOAD SWAP2 DUP2 DUP4 ADD DUP6 MLOAD SWAP4 PUSH2 0x1324 DUP5 DUP3 DUP2 DUP11 ADD SWAP8 PUSH2 0x1317 DUP2 DUP8 DUP12 PUSH2 0x210A JUMP JUMPDEST DUP2 ADD SUB DUP1 DUP5 MSTORE ADD DUP3 PUSH2 0x2093 JUMP JUMPDEST MLOAD SWAP1 KECCAK256 SUB PUSH2 0x13FF JUMPI JUMPDEST POP POP POP POP POP PUSH1 0x1 DUP1 SWAP2 ADD SWAP4 DUP6 MLOAD SWAP4 DUP5 GT PUSH2 0xBFF JUMPI PUSH2 0x134B DUP6 SLOAD PUSH2 0x23BD JUMP JUMPDEST PUSH1 0x1F DUP2 GT PUSH2 0x13CF JUMPI JUMPDEST POP DUP1 SWAP3 PUSH1 0x1F DUP6 GT PUSH1 0x1 EQ PUSH2 0x1388 JUMPI POP POP POP DUP2 SWAP1 PUSH2 0xFCE SWAP4 SWAP5 PUSH1 0x0 SWAP3 PUSH2 0xFD2 JUMPI POP POP DUP2 PUSH1 0x1 SHL SWAP2 PUSH1 0x0 NOT SWAP1 PUSH1 0x3 SHL SHR NOT AND OR SWAP1 JUMP JUMPDEST PUSH1 0x0 DUP7 DUP2 MSTORE DUP3 DUP2 KECCAK256 SWAP5 SWAP4 SWAP2 DUP7 AND SWAP3 SWAP1 SWAP2 JUMPDEST DUP4 DUP4 LT PUSH2 0x13B8 JUMPI POP POP POP SWAP5 DUP4 PUSH1 0x1 SWAP6 SWAP7 LT PUSH2 0x100E JUMPI POP POP POP DUP2 SHL ADD SWAP1 SSTORE STOP JUMPDEST DUP9 DUP6 ADD MLOAD DUP7 SSTORE SWAP5 DUP6 ADD SWAP5 SWAP4 DUP2 ADD SWAP4 SWAP2 DUP2 ADD SWAP2 PUSH2 0x1399 JUMP JUMPDEST PUSH2 0x13F9 SWAP1 DUP7 PUSH1 0x0 MSTORE DUP3 PUSH1 0x0 KECCAK256 PUSH1 0x1F DUP8 ADD PUSH1 0x5 SHR DUP2 ADD SWAP2 DUP5 DUP9 LT PUSH2 0xBF5 JUMPI PUSH1 0x1F ADD PUSH1 0x5 SHR ADD SWAP1 PUSH2 0x2577 JUMP JUMPDEST DUP7 PUSH2 0x1354 JUMP JUMPDEST PUSH2 0x1443 SWAP2 PUSH2 0x1418 PUSH1 0x40 MLOAD DUP4 DUP2 DUP9 MLOAD PUSH2 0x8DC DUP2 DUP4 DUP9 PUSH2 0x210A JUMP JUMPDEST PUSH1 0x0 PUSH1 0x40 MLOAD DUP4 DUP2 PUSH2 0x1429 DUP2 DUP12 PUSH2 0x259D JUMP JUMPDEST PUSH1 0x3 DUP2 MSTORE SUB ADD SWAP1 KECCAK256 SSTORE PUSH1 0x40 MLOAD DUP1 SWAP4 DUP2 SWAP3 DUP8 MLOAD SWAP3 DUP4 SWAP2 PUSH2 0x210A JUMP JUMPDEST DUP2 ADD PUSH1 0x3 DUP2 MSTORE SUB ADD SWAP1 KECCAK256 SSTORE DUP1 MLOAD SWAP1 DUP6 DUP3 GT PUSH2 0xBFF JUMPI PUSH2 0x1462 DUP4 SLOAD PUSH2 0x23BD JUMP JUMPDEST PUSH1 0x1F DUP2 GT PUSH2 0x1518 JUMPI JUMPDEST POP DUP7 SWAP1 PUSH1 0x1F DUP4 GT PUSH1 0x1 EQ PUSH2 0x14B3 JUMPI PUSH2 0x149B SWAP3 SWAP2 PUSH1 0x0 SWAP2 DUP4 PUSH2 0x14A8 JUMPI POP POP DUP2 PUSH1 0x1 SHL SWAP2 PUSH1 0x0 NOT SWAP1 PUSH1 0x3 SHL SHR NOT AND OR SWAP1 JUMP JUMPDEST SWAP1 SSTORE JUMPDEST DUP6 DUP1 DUP1 DUP1 DUP8 PUSH2 0x132D JUMP JUMPDEST ADD MLOAD SWAP1 POP DUP10 DUP1 PUSH2 0x9B0 JUMP JUMPDEST SWAP1 DUP6 DUP4 AND SWAP2 DUP5 PUSH1 0x0 MSTORE DUP9 PUSH1 0x0 KECCAK256 SWAP3 PUSH1 0x0 JUMPDEST DUP11 DUP3 DUP3 LT PUSH2 0x1502 JUMPI POP POP SWAP1 DUP5 PUSH1 0x1 SWAP6 SWAP5 SWAP4 SWAP3 LT PUSH2 0x14E9 JUMPI JUMPDEST POP POP POP DUP2 SHL ADD SWAP1 SSTORE PUSH2 0x149E JUMP JUMPDEST ADD MLOAD PUSH1 0x0 NOT PUSH1 0xF8 DUP5 PUSH1 0x3 SHL AND SHR NOT AND SWAP1 SSTORE DUP9 DUP1 DUP1 PUSH2 0x14DC JUMP JUMPDEST PUSH1 0x1 DUP6 SWAP7 DUP3 SWAP4 SWAP7 DUP7 ADD MLOAD DUP2 SSTORE ADD SWAP6 ADD SWAP4 ADD PUSH2 0x14C4 JUMP JUMPDEST PUSH2 0x1542 SWAP1 DUP5 PUSH1 0x0 MSTORE DUP9 PUSH1 0x0 KECCAK256 PUSH1 0x1F DUP6 ADD PUSH1 0x5 SHR DUP2 ADD SWAP2 DUP11 DUP7 LT PUSH2 0xBF5 JUMPI PUSH1 0x1F ADD PUSH1 0x5 SHR ADD SWAP1 PUSH2 0x2577 JUMP JUMPDEST DUP9 PUSH2 0x146B JUMP JUMPDEST POP PUSH1 0x4 SLOAD DUP2 GT ISZERO PUSH2 0x12B0 JUMP JUMPDEST CALLVALUE PUSH2 0x2DB JUMPI PUSH1 0x20 DUP1 PUSH1 0x3 NOT CALLDATASIZE ADD SLT PUSH2 0x2DB JUMPI PUSH1 0x6 SLOAD PUSH1 0x0 SWAP2 PUSH1 0x4 CALLDATALOAD SWAP1 PUSH1 0x1 JUMPDEST DUP4 DUP2 GT ISZERO PUSH2 0x1586 JUMPI PUSH1 0x20 DUP6 PUSH1 0x40 MLOAD SWAP1 DUP2 MSTORE RETURN JUMPDEST DUP1 PUSH1 0x0 MSTORE DUP3 PUSH1 0x2 DUP1 DUP5 MSTORE PUSH1 0x40 PUSH1 0x0 KECCAK256 ADD SLOAD EQ PUSH2 0x15AB JUMPI JUMPDEST PUSH2 0x15A6 SWAP1 PUSH2 0x258E JUMP JUMPDEST PUSH2 0x1573 JUMP JUMPDEST SWAP4 PUSH2 0x15B8 PUSH2 0x15A6 SWAP2 PUSH2 0x258E JUMP JUMPDEST SWAP5 SWAP1 POP PUSH2 0x159D JUMP JUMPDEST POP CALLVALUE PUSH2 0x2DB JUMPI PUSH1 0xC0 CALLDATASIZE PUSH1 0x3 NOT ADD SLT PUSH2 0x2DB JUMPI PUSH1 0x4 CALLDATALOAD SWAP1 PUSH1 0x24 CALLDATALOAD PUSH1 0x1 PUSH1 0x1 PUSH1 0x40 SHL SUB DUP2 GT PUSH2 0x2DB JUMPI PUSH2 0x15F5 SWAP1 CALLDATASIZE SWAP1 PUSH1 0x4 ADD PUSH2 0x20B4 JUMP JUMPDEST SWAP1 PUSH1 0x44 CALLDATALOAD PUSH1 0x1 PUSH1 0x1 PUSH1 0x40 SHL SUB DUP2 GT PUSH2 0x2DB JUMPI PUSH2 0x1615 SWAP1 CALLDATASIZE SWAP1 PUSH1 0x4 ADD PUSH2 0x20B4 JUMP JUMPDEST SWAP2 PUSH1 0x64 CALLDATALOAD PUSH1 0x1 PUSH1 0x1 PUSH1 0x40 SHL SUB DUP2 GT PUSH2 0x2DB JUMPI PUSH2 0x1635 SWAP1 CALLDATASIZE SWAP1 PUSH1 0x4 ADD PUSH2 0x20B4 JUMP JUMPDEST PUSH1 0x84 CALLDATALOAD PUSH1 0x1 PUSH1 0x1 PUSH1 0x40 SHL SUB DUP2 GT PUSH2 0x2DB JUMPI PUSH2 0x1654 SWAP1 CALLDATASIZE SWAP1 PUSH1 0x4 ADD PUSH2 0x20B4 JUMP JUMPDEST DUP6 ISZERO ISZERO DUP1 PUSH2 0x1B26 JUMPI JUMPDEST PUSH2 0x1666 SWAP1 PUSH2 0x2380 JUMP JUMPDEST PUSH2 0x1671 PUSH1 0x5 SLOAD PUSH2 0x258E JUMP JUMPDEST SWAP2 DUP3 PUSH1 0x5 SSTORE PUSH1 0x40 MLOAD SWAP6 PUSH2 0x1683 DUP8 PUSH2 0x205C JUMP JUMPDEST DUP4 DUP8 MSTORE PUSH1 0x20 DUP8 ADD SWAP8 DUP9 MSTORE PUSH1 0x40 DUP8 ADD SWAP5 DUP6 MSTORE PUSH1 0x60 DUP8 ADD MSTORE PUSH1 0x80 DUP7 ADD MSTORE PUSH1 0xA0 DUP6 ADD MSTORE PUSH1 0x0 PUSH1 0xC0 DUP6 ADD MSTORE PUSH1 0x0 DUP4 DUP6 ADD MSTORE PUSH1 0xA4 CALLDATALOAD PUSH2 0x100 DUP6 ADD MSTORE TIMESTAMP PUSH2 0x120 DUP6 ADD MSTORE PUSH1 0x0 MSTORE PUSH1 0x1 PUSH1 0x20 MSTORE PUSH1 0x40 PUSH1 0x0 KECCAK256 SWAP4 DUP4 MLOAD DUP6 SSTORE MLOAD PUSH1 0x1 DUP6 ADD SSTORE MLOAD SWAP3 DUP4 MLOAD PUSH1 0x1 PUSH1 0x1 PUSH1 0x40 SHL SUB DUP2 GT PUSH2 0xBFF JUMPI PUSH2 0x16F7 PUSH1 0x2 DUP4 ADD SLOAD PUSH2 0x23BD JUMP JUMPDEST PUSH1 0x1F DUP2 GT PUSH2 0x1AF1 JUMPI JUMPDEST POP PUSH1 0x20 PUSH1 0x1F DUP3 GT PUSH1 0x1 EQ PUSH2 0x1A82 JUMPI DUP2 SWAP1 PUSH2 0x1733 SWAP4 SWAP5 SWAP6 SWAP7 PUSH1 0x0 SWAP3 PUSH2 0xB47 JUMPI POP POP DUP2 PUSH1 0x1 SHL SWAP2 PUSH1 0x0 NOT SWAP1 PUSH1 0x3 SHL SHR NOT AND OR SWAP1 JUMP JUMPDEST PUSH1 0x2 DUP3 ADD SSTORE JUMPDEST PUSH1 0x60 DUP4 ADD MLOAD SWAP3 DUP4 MLOAD PUSH1 0x1 PUSH1 0x1 PUSH1 0x40 SHL SUB DUP2 GT PUSH2 0xBFF JUMPI PUSH2 0x175C PUSH1 0x3 DUP5 ADD SLOAD PUSH2 0x23BD JUMP JUMPDEST PUSH1 0x1F DUP2 GT PUSH2 0x1A4D JUMPI JUMPDEST POP PUSH1 0x20 SWAP5 PUSH1 0x1F DUP3 GT PUSH1 0x1 EQ PUSH2 0x19E1 JUMPI PUSH2 0x1799 SWAP3 SWAP4 SWAP5 SWAP6 DUP3 SWAP2 PUSH1 0x0 SWAP3 PUSH2 0xB47 JUMPI POP POP DUP2 PUSH1 0x1 SHL SWAP2 PUSH1 0x0 NOT SWAP1 PUSH1 0x3 SHL SHR NOT AND OR SWAP1 JUMP JUMPDEST PUSH1 0x3 DUP4 ADD SSTORE JUMPDEST PUSH1 0x80 DUP2 ADD MLOAD SWAP3 DUP4 MLOAD PUSH1 0x1 PUSH1 0x1 PUSH1 0x40 SHL SUB DUP2 GT PUSH2 0xBFF JUMPI PUSH2 0x17C2 PUSH1 0x4 DUP6 ADD SLOAD PUSH2 0x23BD JUMP JUMPDEST PUSH1 0x1F DUP2 GT PUSH2 0x19AC JUMPI JUMPDEST POP PUSH1 0x20 SWAP5 PUSH1 0x1F DUP3 GT PUSH1 0x1 EQ PUSH2 0x1940 JUMPI PUSH2 0x17FF SWAP3 SWAP4 SWAP5 SWAP6 DUP3 SWAP2 PUSH1 0x0 SWAP3 PUSH2 0xB47 JUMPI POP POP DUP2 PUSH1 0x1 SHL SWAP2 PUSH1 0x0 NOT SWAP1 PUSH1 0x3 SHL SHR NOT AND OR SWAP1 JUMP JUMPDEST PUSH1 0x4 DUP5 ADD SSTORE JUMPDEST PUSH1 0x5 DUP4 ADD PUSH1 0xA0 DUP4 ADD MLOAD DUP1 MLOAD SWAP1 PUSH1 0x1 PUSH1 0x1 PUSH1 0x40 SHL SUB DUP3 GT PUSH2 0xBFF JUMPI PUSH2 0x1829 DUP4 SLOAD PUSH2 0x23BD JUMP JUMPDEST PUSH1 0x1F DUP2 GT PUSH2 0x190E JUMPI JUMPDEST POP PUSH1 0x20 SWAP1 PUSH1 0x1F DUP4 GT PUSH1 0x1 EQ PUSH2 0x189E JUMPI DUP3 PUSH2 0x120 SWAP6 SWAP4 PUSH1 0x9 SWAP8 SWAP6 SWAP4 PUSH2 0x186C SWAP4 PUSH1 0x0 SWAP3 PUSH2 0xB47 JUMPI POP POP DUP2 PUSH1 0x1 SHL SWAP2 PUSH1 0x0 NOT SWAP1 PUSH1 0x3 SHL SHR NOT AND OR SWAP1 JUMP JUMPDEST SWAP1 SSTORE JUMPDEST PUSH1 0xC0 DUP3 ADD MLOAD PUSH1 0x6 DUP7 ADD SSTORE DUP2 ADD MLOAD PUSH1 0x7 DUP6 ADD SSTORE PUSH2 0x100 DUP2 ADD MLOAD PUSH1 0x8 DUP6 ADD SSTORE ADD MLOAD SWAP2 ADD SSTORE PUSH1 0x20 PUSH1 0x5 SLOAD PUSH1 0x40 MLOAD SWAP1 DUP2 MSTORE RETURN JUMPDEST SWAP1 PUSH1 0x1F NOT DUP4 AND SWAP2 DUP5 PUSH1 0x0 MSTORE PUSH1 0x20 PUSH1 0x0 KECCAK256 SWAP3 PUSH1 0x0 JUMPDEST DUP2 DUP2 LT PUSH2 0x18F6 JUMPI POP SWAP3 PUSH1 0x1 SWAP3 DUP6 SWAP3 PUSH2 0x120 SWAP9 SWAP7 PUSH1 0x9 SWAP11 SWAP9 SWAP7 LT PUSH2 0x18DD JUMPI JUMPDEST POP POP POP DUP2 SHL ADD SWAP1 SSTORE PUSH2 0x186F JUMP JUMPDEST ADD MLOAD PUSH1 0x0 NOT PUSH1 0xF8 DUP5 PUSH1 0x3 SHL AND SHR NOT AND SWAP1 SSTORE CODESIZE DUP1 DUP1 PUSH2 0x18D0 JUMP JUMPDEST SWAP3 SWAP4 PUSH1 0x20 PUSH1 0x1 DUP2 SWAP3 DUP8 DUP7 ADD MLOAD DUP2 SSTORE ADD SWAP6 ADD SWAP4 ADD PUSH2 0x18B2 JUMP JUMPDEST PUSH2 0x193A SWAP1 DUP5 PUSH1 0x0 MSTORE PUSH1 0x20 PUSH1 0x0 KECCAK256 PUSH1 0x1F DUP6 ADD PUSH1 0x5 SHR DUP2 ADD SWAP2 PUSH1 0x20 DUP7 LT PUSH2 0xBF5 JUMPI PUSH1 0x1F ADD PUSH1 0x5 SHR ADD SWAP1 PUSH2 0x2577 JUMP JUMPDEST CODESIZE PUSH2 0x1832 JUMP JUMPDEST PUSH1 0x1F NOT DUP3 AND SWAP6 PUSH1 0x4 DUP7 ADD PUSH1 0x0 MSTORE PUSH1 0x20 PUSH1 0x0 KECCAK256 SWAP2 PUSH1 0x0 JUMPDEST DUP9 DUP2 LT PUSH2 0x1994 JUMPI POP DUP4 PUSH1 0x1 SWAP6 SWAP7 SWAP8 SWAP9 LT PUSH2 0x197B JUMPI JUMPDEST POP POP POP DUP2 SHL ADD PUSH1 0x4 DUP5 ADD SSTORE PUSH2 0x1805 JUMP JUMPDEST ADD MLOAD PUSH1 0x0 NOT PUSH1 0xF8 DUP5 PUSH1 0x3 SHL AND SHR NOT AND SWAP1 SSTORE CODESIZE DUP1 DUP1 PUSH2 0x196B JUMP JUMPDEST SWAP2 SWAP3 PUSH1 0x20 PUSH1 0x1 DUP2 SWAP3 DUP7 DUP6 ADD MLOAD DUP2 SSTORE ADD SWAP5 ADD SWAP3 ADD PUSH2 0x1956 JUMP JUMPDEST PUSH2 0x19DB SWAP1 PUSH1 0x4 DUP7 ADD PUSH1 0x0 MSTORE PUSH1 0x20 PUSH1 0x0 KECCAK256 PUSH1 0x1F DUP5 ADD PUSH1 0x5 SHR DUP2 ADD SWAP2 PUSH1 0x20 DUP6 LT PUSH2 0xBF5 JUMPI PUSH1 0x1F ADD PUSH1 0x5 SHR ADD SWAP1 PUSH2 0x2577 JUMP JUMPDEST CODESIZE PUSH2 0x17CB JUMP JUMPDEST PUSH1 0x1F NOT DUP3 AND SWAP6 PUSH1 0x3 DUP6 ADD PUSH1 0x0 MSTORE PUSH1 0x20 PUSH1 0x0 KECCAK256 SWAP2 PUSH1 0x0 JUMPDEST DUP9 DUP2 LT PUSH2 0x1A35 JUMPI POP DUP4 PUSH1 0x1 SWAP6 SWAP7 SWAP8 SWAP9 LT PUSH2 0x1A1C JUMPI JUMPDEST POP POP POP DUP2 SHL ADD PUSH1 0x3 DUP4 ADD SSTORE PUSH2 0x179F JUMP JUMPDEST ADD MLOAD PUSH1 0x0 NOT PUSH1 0xF8 DUP5 PUSH1 0x3 SHL AND SHR NOT AND SWAP1 SSTORE CODESIZE DUP1 DUP1 PUSH2 0x1A0C JUMP JUMPDEST SWAP2 SWAP3 PUSH1 0x20 PUSH1 0x1 DUP2 SWAP3 DUP7 DUP6 ADD MLOAD DUP2 SSTORE ADD SWAP5 ADD SWAP3 ADD PUSH2 0x19F7 JUMP JUMPDEST PUSH2 0x1A7C SWAP1 PUSH1 0x3 DUP6 ADD PUSH1 0x0 MSTORE PUSH1 0x20 PUSH1 0x0 KECCAK256 PUSH1 0x1F DUP5 ADD PUSH1 0x5 SHR DUP2 ADD SWAP2 PUSH1 0x20 DUP6 LT PUSH2 0xBF5 JUMPI PUSH1 0x1F ADD PUSH1 0x5 SHR ADD SWAP1 PUSH2 0x2577 JUMP JUMPDEST CODESIZE PUSH2 0x1765 JUMP JUMPDEST PUSH1 0x2 DUP4 ADD PUSH1 0x0 MSTORE PUSH1 0x20 PUSH1 0x0 KECCAK256 SWAP1 PUSH1 0x0 JUMPDEST PUSH1 0x1F NOT DUP5 AND DUP2 LT PUSH2 0x1AD9 JUMPI POP PUSH1 0x1 SWAP4 SWAP5 SWAP6 SWAP7 DUP4 PUSH1 0x1F NOT DUP2 AND LT PUSH2 0x1AC0 JUMPI JUMPDEST POP POP POP DUP2 SHL ADD PUSH1 0x2 DUP3 ADD SSTORE PUSH2 0x1739 JUMP JUMPDEST ADD MLOAD PUSH1 0x0 NOT PUSH1 0xF8 DUP5 PUSH1 0x3 SHL AND SHR NOT AND SWAP1 SSTORE CODESIZE DUP1 DUP1 PUSH2 0x1AB0 JUMP JUMPDEST SWAP1 SWAP2 PUSH1 0x20 PUSH1 0x1 DUP2 SWAP3 DUP6 DUP12 ADD MLOAD DUP2 SSTORE ADD SWAP4 ADD SWAP2 ADD PUSH2 0x1A92 JUMP JUMPDEST PUSH2 0x1B20 SWAP1 PUSH1 0x2 DUP5 ADD PUSH1 0x0 MSTORE PUSH1 0x20 PUSH1 0x0 KECCAK256 PUSH1 0x1F DUP5 ADD PUSH1 0x5 SHR DUP2 ADD SWAP2 PUSH1 0x20 DUP6 LT PUSH2 0xBF5 JUMPI PUSH1 0x1F ADD PUSH1 0x5 SHR ADD SWAP1 PUSH2 0x2577 JUMP JUMPDEST CODESIZE PUSH2 0x1700 JUMP JUMPDEST POP PUSH1 0x4 SLOAD DUP7 GT ISZERO PUSH2 0x165D JUMP JUMPDEST CALLVALUE PUSH2 0x2DB JUMPI PUSH1 0x80 CALLDATASIZE PUSH1 0x3 NOT ADD SLT PUSH2 0x2DB JUMPI PUSH1 0x4 CALLDATALOAD PUSH1 0x64 CALLDATALOAD PUSH1 0x24 PUSH1 0x1 PUSH1 0x1 PUSH1 0x40 SHL SUB DUP1 DUP4 GT PUSH2 0x2DB JUMPI CALLDATASIZE PUSH1 0x23 DUP5 ADD SLT ISZERO PUSH2 0x2DB JUMPI DUP3 PUSH1 0x4 ADD CALLDATALOAD SWAP1 PUSH2 0x1B74 DUP3 PUSH2 0x22BB JUMP JUMPDEST SWAP2 PUSH2 0x1B82 PUSH1 0x40 MLOAD SWAP4 DUP5 PUSH2 0x2093 JUMP JUMPDEST DUP1 DUP4 MSTORE PUSH1 0x20 SWAP6 DUP7 DUP5 ADD SWAP6 DUP7 DUP7 PUSH1 0x5 SWAP5 PUSH1 0x5 SHL DUP4 ADD ADD SWAP2 CALLDATASIZE DUP4 GT PUSH2 0x2DB JUMPI DUP8 DUP2 ADD SWAP2 JUMPDEST DUP4 DUP4 LT PUSH2 0x1DD4 JUMPI POP POP POP POP DUP1 ISZERO ISZERO DUP1 PUSH2 0x1DC8 JUMPI JUMPDEST PUSH2 0x1BC1 SWAP1 PUSH2 0x2380 JUMP JUMPDEST PUSH1 0x0 MSTORE PUSH1 0x0 DUP7 MSTORE PUSH1 0x40 PUSH1 0x0 KECCAK256 SWAP4 PUSH1 0x5 PUSH1 0x3 SWAP6 DUP3 CALLDATALOAD PUSH1 0x3 DUP3 ADD SSTORE PUSH1 0x44 CALLDATALOAD PUSH1 0x4 DUP3 ADD SSTORE ADD SWAP4 MLOAD SWAP6 PUSH1 0x1 PUSH1 0x40 SHL DUP8 GT PUSH2 0x1DB3 JUMPI DUP5 SLOAD DUP8 DUP7 SSTORE DUP1 DUP9 LT PUSH2 0x1D3F JUMPI JUMPDEST POP SWAP5 SWAP4 PUSH1 0x0 MSTORE DUP7 PUSH1 0x0 KECCAK256 SWAP4 PUSH1 0x0 SWAP6 JUMPDEST DUP8 DUP8 LT PUSH2 0x1C16 JUMPI STOP JUMPDEST DUP1 MLOAD DUP1 MLOAD SWAP1 DUP7 DUP3 GT PUSH2 0x1D2A JUMPI SWAP1 DUP11 SWAP3 SWAP2 PUSH2 0x1C30 DUP10 SLOAD PUSH2 0x23BD JUMP JUMPDEST SWAP1 PUSH1 0x1F SWAP2 DUP3 DUP2 GT PUSH2 0x1CF4 JUMPI JUMPDEST POP DUP5 SWAP2 DUP4 GT PUSH1 0x1 EQ PUSH2 0x1C8A JUMPI DUP3 PUSH1 0x1 SWAP6 SWAP4 DUP7 SWAP6 SWAP4 PUSH2 0x1C70 SWAP4 PUSH1 0x0 SWAP3 PUSH2 0x1C7F JUMPI POP POP DUP2 PUSH1 0x1 SHL SWAP2 PUSH1 0x0 NOT SWAP1 PUSH1 0x3 SHL SHR NOT AND OR SWAP1 JUMP JUMPDEST DUP10 SSTORE JUMPDEST ADD SWAP7 ADD SWAP7 ADD SWAP6 SWAP5 PUSH2 0x1C0D JUMP JUMPDEST ADD MLOAD SWAP1 POP DUP16 DUP1 PUSH2 0x9B0 JUMP JUMPDEST SWAP1 PUSH1 0x1F NOT DUP4 AND SWAP2 DUP11 PUSH1 0x0 MSTORE DUP6 PUSH1 0x0 KECCAK256 SWAP3 PUSH1 0x0 JUMPDEST DUP2 DUP2 LT PUSH2 0x1CDD JUMPI POP SWAP2 PUSH1 0x1 SWAP7 SWAP5 SWAP3 SWAP2 DUP4 DUP9 SWAP8 SWAP6 SWAP4 LT PUSH2 0x1CC5 JUMPI JUMPDEST POP POP POP DUP4 SHL DUP4 ADD DUP10 SSTORE PUSH2 0x1C73 JUMP JUMPDEST ADD MLOAD PUSH1 0x0 NOT DUP4 DUP10 SHL PUSH1 0xF8 AND SHR NOT AND SWAP1 SSTORE DUP14 DUP1 DUP1 PUSH2 0x1CB7 JUMP JUMPDEST SWAP3 SWAP4 DUP8 PUSH1 0x1 DUP2 SWAP3 DUP8 DUP7 ADD MLOAD DUP2 SSTORE ADD SWAP6 ADD SWAP4 ADD PUSH2 0x1C9D JUMP JUMPDEST PUSH2 0x1D1B SWAP1 DUP12 PUSH1 0x0 MSTORE DUP7 PUSH1 0x0 KECCAK256 DUP5 DUP1 DUP8 ADD DUP13 SHR DUP3 ADD SWAP3 DUP10 DUP9 LT PUSH2 0x1D21 JUMPI JUMPDEST ADD DUP12 SHR ADD SWAP1 PUSH2 0x2577 JUMP JUMPDEST DUP14 PUSH2 0x1C3C JUMP JUMPDEST SWAP3 POP DUP2 SWAP3 PUSH2 0x1D11 JUMP JUMPDEST DUP5 PUSH4 0x4E487B71 PUSH1 0xE0 SHL PUSH1 0x0 MSTORE PUSH1 0x41 PUSH1 0x4 MSTORE PUSH1 0x0 REVERT JUMPDEST DUP6 PUSH1 0x0 MSTORE DUP8 DUP10 PUSH1 0x0 KECCAK256 SWAP2 DUP3 ADD SWAP2 ADD JUMPDEST DUP2 DUP2 LT PUSH2 0x1D5B JUMPI POP PUSH2 0x1BFE JUMP JUMPDEST DUP1 PUSH2 0x1D68 PUSH1 0x1 SWAP3 SLOAD PUSH2 0x23BD JUMP JUMPDEST DUP1 PUSH2 0x1D75 JUMPI JUMPDEST POP ADD PUSH2 0x1D4E JUMP JUMPDEST PUSH1 0x1F SWAP1 DUP13 DUP3 DUP3 GT DUP6 EQ PUSH2 0x1D90 JUMPI POP POP POP PUSH1 0x0 DUP2 SSTORE JUMPDEST DUP12 PUSH2 0x1D6E JUMP JUMPDEST PUSH1 0x0 SWAP3 PUSH2 0x1DAA SWAP2 DUP6 DUP6 MSTORE DUP5 KECCAK256 SWAP3 ADD DUP10 SHR DUP3 ADD DUP6 DUP4 ADD PUSH2 0x2577 JUMP JUMPDEST DUP2 DUP4 SSTORE SSTORE PUSH2 0x1D8A JUMP JUMPDEST POP PUSH4 0x4E487B71 PUSH1 0xE0 SHL PUSH1 0x0 SWAP1 DUP2 MSTORE PUSH1 0x41 PUSH1 0x4 MSTORE REVERT JUMPDEST POP PUSH1 0x4 SLOAD DUP2 GT ISZERO PUSH2 0x1BB8 JUMP JUMPDEST DUP3 CALLDATALOAD DUP8 DUP2 GT PUSH2 0x2DB JUMPI DUP12 SWAP2 PUSH2 0x1DEF DUP4 SWAP3 DUP13 CALLDATASIZE SWAP2 DUP8 ADD ADD PUSH2 0x20B4 JUMP JUMPDEST DUP2 MSTORE ADD SWAP3 ADD SWAP2 PUSH2 0x1BA4 JUMP JUMPDEST CALLVALUE PUSH2 0x2DB JUMPI PUSH1 0x20 CALLDATASIZE PUSH1 0x3 NOT ADD SLT PUSH2 0x2DB JUMPI PUSH1 0x4 CALLDATALOAD PUSH2 0x1E16 PUSH2 0x249C JUMP JUMPDEST POP DUP1 ISZERO ISZERO DUP1 PUSH2 0x1E55 JUMPI JUMPDEST PUSH2 0x1E29 SWAP1 PUSH2 0x2302 JUMP JUMPDEST PUSH1 0x0 MSTORE PUSH1 0x1 PUSH1 0x20 MSTORE PUSH2 0x5A5 PUSH2 0x1E41 PUSH1 0x40 PUSH1 0x0 KECCAK256 PUSH2 0x24EB JUMP JUMPDEST PUSH1 0x40 MLOAD SWAP2 DUP3 SWAP2 PUSH1 0x20 DUP4 MSTORE PUSH1 0x20 DUP4 ADD SWAP1 PUSH2 0x2226 JUMP JUMPDEST POP PUSH1 0x5 SLOAD DUP2 GT ISZERO PUSH2 0x1E20 JUMP JUMPDEST CALLVALUE PUSH2 0x2DB JUMPI PUSH1 0x20 CALLDATASIZE PUSH1 0x3 NOT ADD SLT PUSH2 0x2DB JUMPI PUSH1 0x4 CALLDATALOAD DUP1 ISZERO ISZERO DUP1 PUSH2 0x1EA7 JUMPI JUMPDEST PUSH2 0x1E87 SWAP1 PUSH2 0x2380 JUMP JUMPDEST PUSH1 0x0 MSTORE PUSH1 0x0 PUSH1 0x20 MSTORE PUSH1 0x6 PUSH1 0x40 PUSH1 0x0 KECCAK256 ADD PUSH1 0x1 PUSH1 0xFF NOT DUP3 SLOAD AND OR SWAP1 SSTORE PUSH1 0x0 DUP1 RETURN JUMPDEST POP PUSH1 0x4 SLOAD DUP2 GT ISZERO PUSH2 0x1E7E JUMP JUMPDEST POP CALLVALUE PUSH2 0x2DB JUMPI PUSH1 0x20 DUP1 PUSH1 0x3 NOT CALLDATASIZE ADD SLT PUSH2 0x2DB JUMPI PUSH1 0x4 CALLDATALOAD PUSH1 0x1 PUSH1 0x1 PUSH1 0x40 SHL SUB DUP2 GT PUSH2 0x2DB JUMPI DUP2 PUSH2 0x1EE9 PUSH2 0x1F05 SWAP3 CALLDATASIZE SWAP1 PUSH1 0x4 ADD PUSH2 0x20B4 JUMP JUMPDEST PUSH2 0x1EF1 PUSH2 0x2340 JUMP JUMPDEST POP DUP2 PUSH1 0x40 MLOAD SWAP4 DUP3 DUP6 DUP1 SWAP5 MLOAD SWAP4 DUP5 SWAP3 ADD PUSH2 0x210A JUMP JUMPDEST DUP2 ADD PUSH1 0x3 DUP2 MSTORE SUB ADD SWAP1 KECCAK256 SLOAD PUSH2 0x1F1B DUP2 ISZERO ISZERO PUSH2 0x2380 JUMP JUMPDEST PUSH1 0x0 MSTORE PUSH1 0x0 DUP2 MSTORE PUSH1 0x40 PUSH1 0x0 KECCAK256 SWAP2 PUSH1 0x40 MLOAD SWAP2 PUSH2 0x1F35 DUP4 PUSH2 0x2040 JUMP JUMPDEST DUP4 SLOAD DUP4 MSTORE PUSH1 0x1 PUSH2 0x1F47 PUSH1 0x1 DUP7 ADD PUSH2 0x23F7 JUMP JUMPDEST DUP3 DUP6 ADD MSTORE PUSH2 0x1F57 PUSH1 0x2 DUP7 ADD PUSH2 0x23F7 JUMP JUMPDEST PUSH1 0x40 DUP6 ADD MSTORE PUSH1 0x3 DUP6 ADD SLOAD PUSH1 0x60 DUP6 ADD MSTORE PUSH1 0x4 DUP6 ADD SLOAD PUSH1 0x80 DUP6 ADD MSTORE PUSH1 0x5 DUP6 ADD DUP1 SLOAD SWAP1 PUSH2 0x1F80 DUP3 PUSH2 0x22BB JUMP JUMPDEST SWAP4 PUSH2 0x1F8E PUSH1 0x40 MLOAD SWAP6 DUP7 PUSH2 0x2093 JUMP JUMPDEST DUP3 DUP6 MSTORE PUSH1 0x0 SWAP2 DUP3 MSTORE DUP1 DUP3 KECCAK256 DUP2 DUP7 ADD JUMPDEST DUP5 DUP5 LT PUSH2 0x1FD1 JUMPI PUSH1 0xA0 DUP10 ADD DUP8 SWAP1 MSTORE PUSH1 0x6 DUP11 ADD SLOAD PUSH1 0xFF AND ISZERO ISZERO PUSH1 0xC0 DUP11 ADD MSTORE PUSH1 0x7 DUP11 ADD SLOAD DUP9 DUP11 ADD MSTORE PUSH1 0x40 MLOAD DUP1 PUSH2 0x5A5 DUP12 DUP3 PUSH2 0x2152 JUMP JUMPDEST DUP6 DUP4 DUP2 SWAP3 PUSH2 0x1FDE DUP6 PUSH2 0x23F7 JUMP JUMPDEST DUP2 MSTORE ADD SWAP3 ADD SWAP4 ADD SWAP3 SWAP1 PUSH2 0x1F9D JUMP JUMPDEST CALLVALUE PUSH2 0x2DB JUMPI PUSH1 0x60 CALLDATASIZE PUSH1 0x3 NOT ADD SLT PUSH2 0x2DB JUMPI PUSH1 0x4 CALLDATALOAD DUP1 ISZERO ISZERO DUP1 PUSH2 0x2034 JUMPI JUMPDEST PUSH2 0x2012 SWAP1 PUSH2 0x2302 JUMP JUMPDEST PUSH1 0x0 MSTORE PUSH1 0x1 PUSH1 0x20 MSTORE PUSH1 0x40 PUSH1 0x0 KECCAK256 PUSH1 0x24 CALLDATALOAD PUSH1 0x6 DUP3 ADD SSTORE PUSH1 0x7 PUSH1 0x44 CALLDATALOAD SWAP2 ADD SSTORE PUSH1 0x0 DUP1 RETURN JUMPDEST POP PUSH1 0x5 SLOAD DUP2 GT ISZERO PUSH2 0x2009 JUMP JUMPDEST PUSH2 0x100 DUP2 ADD SWAP1 DUP2 LT PUSH1 0x1 PUSH1 0x1 PUSH1 0x40 SHL SUB DUP3 GT OR PUSH2 0xBFF JUMPI PUSH1 0x40 MSTORE JUMP JUMPDEST PUSH2 0x140 DUP2 ADD SWAP1 DUP2 LT PUSH1 0x1 PUSH1 0x1 PUSH1 0x40 SHL SUB DUP3 GT OR PUSH2 0xBFF JUMPI PUSH1 0x40 MSTORE JUMP JUMPDEST PUSH1 0x80 DUP2 ADD SWAP1 DUP2 LT PUSH1 0x1 PUSH1 0x1 PUSH1 0x40 SHL SUB DUP3 GT OR PUSH2 0xBFF JUMPI PUSH1 0x40 MSTORE JUMP JUMPDEST SWAP1 PUSH1 0x1F DUP1 NOT SWAP2 ADD AND DUP2 ADD SWAP1 DUP2 LT PUSH1 0x1 PUSH1 0x1 PUSH1 0x40 SHL SUB DUP3 GT OR PUSH2 0xBFF JUMPI PUSH1 0x40 MSTORE JUMP JUMPDEST DUP2 PUSH1 0x1F DUP3 ADD SLT ISZERO PUSH2 0x2DB JUMPI DUP1 CALLDATALOAD SWAP1 PUSH1 0x1 PUSH1 0x1 PUSH1 0x40 SHL SUB DUP3 GT PUSH2 0xBFF JUMPI PUSH1 0x40 MLOAD SWAP3 PUSH2 0x20E8 PUSH1 0x1F DUP5 ADD PUSH1 0x1F NOT AND PUSH1 0x20 ADD DUP6 PUSH2 0x2093 JUMP JUMPDEST DUP3 DUP5 MSTORE PUSH1 0x20 DUP4 DUP4 ADD ADD GT PUSH2 0x2DB JUMPI DUP2 PUSH1 0x0 SWAP3 PUSH1 0x20 DUP1 SWAP4 ADD DUP4 DUP7 ADD CALLDATACOPY DUP4 ADD ADD MSTORE SWAP1 JUMP JUMPDEST PUSH1 0x0 JUMPDEST DUP4 DUP2 LT PUSH2 0x211D JUMPI POP POP PUSH1 0x0 SWAP2 ADD MSTORE JUMP JUMPDEST DUP2 DUP2 ADD MLOAD DUP4 DUP3 ADD MSTORE PUSH1 0x20 ADD PUSH2 0x210D JUMP JUMPDEST SWAP1 PUSH1 0x20 SWAP2 PUSH2 0x2146 DUP2 MLOAD DUP1 SWAP3 DUP2 DUP6 MSTORE DUP6 DUP1 DUP7 ADD SWAP2 ADD PUSH2 0x210A JUMP JUMPDEST PUSH1 0x1F ADD PUSH1 0x1F NOT AND ADD ADD SWAP1 JUMP JUMPDEST PUSH1 0x20 SWAP2 DUP3 DUP3 MSTORE DUP1 MLOAD DUP4 DUP4 ADD MSTORE DUP3 DUP2 ADD MLOAD SWAP1 PUSH2 0x217B PUSH2 0x100 SWAP3 DUP4 PUSH1 0x40 DUP7 ADD MSTORE PUSH2 0x120 DUP6 ADD SWAP1 PUSH2 0x212D JUMP JUMPDEST PUSH2 0x2197 PUSH1 0x40 DUP4 ADD MLOAD SWAP2 PUSH1 0x1F NOT SWAP3 DUP4 DUP8 DUP4 SUB ADD PUSH1 0x60 DUP9 ADD MSTORE PUSH2 0x212D JUMP JUMPDEST PUSH1 0x60 DUP4 ADD MLOAD PUSH1 0x80 DUP7 ADD MSTORE PUSH1 0x80 DUP4 ADD MLOAD PUSH1 0xA0 DUP7 ADD MSTORE PUSH1 0xA0 DUP4 ADD MLOAD SWAP6 DUP3 DUP7 DUP4 SUB ADD PUSH1 0xC0 DUP8 ADD MSTORE DUP7 MLOAD SWAP2 DUP3 DUP2 MSTORE DUP2 DUP2 ADD DUP3 DUP1 DUP6 PUSH1 0x5 SHL DUP5 ADD ADD SWAP10 ADD SWAP5 PUSH1 0x0 SWAP3 JUMPDEST DUP6 DUP5 LT PUSH2 0x21F8 JUMPI POP POP POP POP POP POP POP DUP1 PUSH1 0xC0 PUSH1 0xE0 SWAP3 ADD MLOAD ISZERO ISZERO DUP3 DUP6 ADD MSTORE ADD MLOAD SWAP2 ADD MSTORE SWAP1 JUMP JUMPDEST SWAP1 SWAP2 SWAP3 SWAP4 SWAP5 SWAP6 SWAP10 DUP6 DUP1 PUSH2 0x2215 DUP4 DUP15 DUP8 DUP8 PUSH1 0x1 SWAP8 SUB ADD DUP10 MSTORE MLOAD PUSH2 0x212D JUMP JUMPDEST SWAP13 ADD SWAP5 ADD SWAP5 ADD SWAP3 SWAP6 SWAP5 SWAP4 SWAP2 SWAP1 PUSH2 0x21D4 JUMP JUMPDEST SWAP1 PUSH2 0x228E PUSH2 0x227C PUSH2 0x226A PUSH2 0x2258 PUSH2 0x140 DUP7 MLOAD DUP7 MSTORE PUSH1 0x20 DUP8 ADD MLOAD PUSH1 0x20 DUP8 ADD MSTORE PUSH1 0x40 DUP8 ADD MLOAD SWAP1 DUP1 PUSH1 0x40 DUP9 ADD MSTORE DUP7 ADD SWAP1 PUSH2 0x212D JUMP JUMPDEST PUSH1 0x60 DUP7 ADD MLOAD DUP6 DUP3 SUB PUSH1 0x60 DUP8 ADD MSTORE PUSH2 0x212D JUMP JUMPDEST PUSH1 0x80 DUP6 ADD MLOAD DUP5 DUP3 SUB PUSH1 0x80 DUP7 ADD MSTORE PUSH2 0x212D JUMP JUMPDEST PUSH1 0xA0 DUP5 ADD MLOAD DUP4 DUP3 SUB PUSH1 0xA0 DUP6 ADD MSTORE PUSH2 0x212D JUMP JUMPDEST SWAP2 PUSH1 0xC0 DUP2 ADD MLOAD PUSH1 0xC0 DUP4 ADD MSTORE PUSH1 0xE0 DUP2 ADD MLOAD PUSH1 0xE0 DUP4 ADD MSTORE PUSH2 0x100 DUP1 DUP3 ADD MLOAD SWAP1 DUP4 ADD MSTORE PUSH2 0x120 DUP1 SWAP2 ADD MLOAD SWAP2 ADD MSTORE SWAP1 JUMP JUMPDEST PUSH1 0x1 PUSH1 0x1 PUSH1 0x40 SHL SUB DUP2 GT PUSH2 0xBFF JUMPI PUSH1 0x5 SHL PUSH1 0x20 ADD SWAP1 JUMP JUMPDEST SWAP2 DUP2 PUSH1 0x1F DUP5 ADD SLT ISZERO PUSH2 0x2DB JUMPI DUP3 CALLDATALOAD SWAP2 PUSH1 0x1 PUSH1 0x1 PUSH1 0x40 SHL SUB DUP4 GT PUSH2 0x2DB JUMPI PUSH1 0x20 DUP1 DUP6 ADD SWAP5 DUP5 PUSH1 0x5 SHL ADD ADD GT PUSH2 0x2DB JUMPI JUMP JUMPDEST ISZERO PUSH2 0x2309 JUMPI JUMP JUMPDEST PUSH1 0x40 MLOAD PUSH3 0x461BCD PUSH1 0xE5 SHL DUP2 MSTORE PUSH1 0x20 PUSH1 0x4 DUP3 ADD MSTORE PUSH1 0xF PUSH1 0x24 DUP3 ADD MSTORE PUSH15 0x1218589A5D081B9BDD08199BDD5B99 PUSH1 0x8A SHL PUSH1 0x44 DUP3 ADD MSTORE PUSH1 0x64 SWAP1 REVERT JUMPDEST PUSH1 0x40 MLOAD SWAP1 PUSH2 0x234D DUP3 PUSH2 0x2040 JUMP JUMPDEST PUSH1 0x0 PUSH1 0xE0 DUP4 DUP3 DUP2 MSTORE PUSH1 0x60 PUSH1 0x20 DUP3 ADD MSTORE PUSH1 0x60 PUSH1 0x40 DUP3 ADD MSTORE DUP3 PUSH1 0x60 DUP3 ADD MSTORE DUP3 PUSH1 0x80 DUP3 ADD MSTORE PUSH1 0x60 PUSH1 0xA0 DUP3 ADD MSTORE DUP3 PUSH1 0xC0 DUP3 ADD MSTORE ADD MSTORE JUMP JUMPDEST ISZERO PUSH2 0x2387 JUMPI JUMP JUMPDEST PUSH1 0x40 MLOAD PUSH3 0x461BCD PUSH1 0xE5 SHL DUP2 MSTORE PUSH1 0x20 PUSH1 0x4 DUP3 ADD MSTORE PUSH1 0xE PUSH1 0x24 DUP3 ADD MSTORE PUSH14 0x155CD95C881B9BDD08199BDD5B99 PUSH1 0x92 SHL PUSH1 0x44 DUP3 ADD MSTORE PUSH1 0x64 SWAP1 REVERT JUMPDEST SWAP1 PUSH1 0x1 DUP3 DUP2 SHR SWAP3 AND DUP1 ISZERO PUSH2 0x23ED JUMPI JUMPDEST PUSH1 0x20 DUP4 LT EQ PUSH2 0x23D7 JUMPI JUMP JUMPDEST PUSH4 0x4E487B71 PUSH1 0xE0 SHL PUSH1 0x0 MSTORE PUSH1 0x22 PUSH1 0x4 MSTORE PUSH1 0x24 PUSH1 0x0 REVERT JUMPDEST SWAP2 PUSH1 0x7F AND SWAP2 PUSH2 0x23CC JUMP JUMPDEST SWAP1 PUSH1 0x40 MLOAD SWAP2 DUP3 PUSH1 0x0 DUP3 SLOAD PUSH2 0x240A DUP2 PUSH2 0x23BD JUMP JUMPDEST SWAP1 DUP2 DUP5 MSTORE PUSH1 0x20 SWAP5 PUSH1 0x1 SWAP2 PUSH1 0x1 DUP2 AND SWAP1 DUP2 PUSH1 0x0 EQ PUSH2 0x247A JUMPI POP PUSH1 0x1 EQ PUSH2 0x243B JUMPI JUMPDEST POP POP POP PUSH2 0x2439 SWAP3 POP SUB DUP4 PUSH2 0x2093 JUMP JUMPDEST JUMP JUMPDEST PUSH1 0x0 SWAP1 DUP2 MSTORE DUP6 DUP2 KECCAK256 SWAP6 SWAP4 POP SWAP2 SWAP1 JUMPDEST DUP2 DUP4 LT PUSH2 0x2462 JUMPI POP POP PUSH2 0x2439 SWAP4 POP DUP3 ADD ADD CODESIZE DUP1 DUP1 PUSH2 0x242A JUMP JUMPDEST DUP6 SLOAD DUP9 DUP5 ADD DUP6 ADD MSTORE SWAP5 DUP6 ADD SWAP5 DUP8 SWAP5 POP SWAP2 DUP4 ADD SWAP2 PUSH2 0x2449 JUMP JUMPDEST SWAP3 POP POP POP PUSH2 0x2439 SWAP5 SWAP3 POP PUSH1 0xFF NOT AND DUP3 DUP5 ADD MSTORE ISZERO ISZERO PUSH1 0x5 SHL DUP3 ADD ADD CODESIZE DUP1 DUP1 PUSH2 0x242A JUMP JUMPDEST PUSH1 0x40 MLOAD SWAP1 PUSH2 0x24A9 DUP3 PUSH2 0x205C JUMP JUMPDEST DUP2 PUSH2 0x120 PUSH1 0x0 SWAP2 DUP3 DUP2 MSTORE DUP3 PUSH1 0x20 DUP3 ADD MSTORE PUSH1 0x60 PUSH1 0x40 DUP3 ADD MSTORE PUSH1 0x60 DUP1 DUP3 ADD MSTORE PUSH1 0x60 PUSH1 0x80 DUP3 ADD MSTORE PUSH1 0x60 PUSH1 0xA0 DUP3 ADD MSTORE DUP3 PUSH1 0xC0 DUP3 ADD MSTORE DUP3 PUSH1 0xE0 DUP3 ADD MSTORE DUP3 PUSH2 0x100 DUP3 ADD MSTORE ADD MSTORE JUMP JUMPDEST SWAP1 PUSH1 0x40 MLOAD PUSH2 0x24F8 DUP2 PUSH2 0x205C JUMP JUMPDEST PUSH2 0x120 PUSH1 0x9 DUP3 SWAP5 DUP1 SLOAD DUP5 MSTORE PUSH1 0x1 DUP2 ADD SLOAD PUSH1 0x20 DUP6 ADD MSTORE PUSH2 0x2519 PUSH1 0x2 DUP3 ADD PUSH2 0x23F7 JUMP JUMPDEST PUSH1 0x40 DUP6 ADD MSTORE PUSH2 0x252A PUSH1 0x3 DUP3 ADD PUSH2 0x23F7 JUMP JUMPDEST PUSH1 0x60 DUP6 ADD MSTORE PUSH2 0x253B PUSH1 0x4 DUP3 ADD PUSH2 0x23F7 JUMP JUMPDEST PUSH1 0x80 DUP6 ADD MSTORE PUSH2 0x254C PUSH1 0x5 DUP3 ADD PUSH2 0x23F7 JUMP JUMPDEST PUSH1 0xA0 DUP6 ADD MSTORE PUSH1 0x6 DUP2 ADD SLOAD PUSH1 0xC0 DUP6 ADD MSTORE PUSH1 0x7 DUP2 ADD SLOAD PUSH1 0xE0 DUP6 ADD MSTORE PUSH1 0x8 DUP2 ADD SLOAD PUSH2 0x100 DUP6 ADD MSTORE ADD SLOAD SWAP2 ADD MSTORE JUMP JUMPDEST DUP2 DUP2 LT PUSH2 0x2582 JUMPI POP POP JUMP JUMPDEST PUSH1 0x0 DUP2 SSTORE PUSH1 0x1 ADD PUSH2 0x2577 JUMP JUMPDEST PUSH1 0x0 NOT DUP2 EQ PUSH2 0x298 JUMPI PUSH1 0x1 ADD SWAP1 JUMP JUMPDEST PUSH1 0x0 SWAP3 SWAP2 DUP2 SLOAD PUSH2 0x25AC DUP2 PUSH2 0x23BD JUMP JUMPDEST SWAP3 PUSH1 0x1 SWAP2 DUP1 DUP4 AND SWAP1 DUP2 ISZERO PUSH2 0x2606 JUMPI POP PUSH1 0x1 EQ PUSH2 0x25C9 JUMPI JUMPDEST POP POP POP POP JUMP JUMPDEST SWAP1 SWAP2 SWAP3 SWAP4 SWAP5 POP PUSH1 0x0 MSTORE PUSH1 0x20 SWAP1 PUSH1 0x20 PUSH1 0x0 KECCAK256 SWAP1 PUSH1 0x0 SWAP2 JUMPDEST DUP6 DUP4 LT PUSH2 0x25F5 JUMPI POP POP POP POP ADD SWAP1 CODESIZE DUP1 DUP1 DUP1 PUSH2 0x25C3 JUMP JUMPDEST DUP1 SLOAD DUP6 DUP5 ADD MSTORE SWAP2 DUP4 ADD SWAP2 DUP2 ADD PUSH2 0x25DF JUMP JUMPDEST PUSH1 0xFF NOT AND DUP5 MSTORE POP POP POP DUP2 ISZERO ISZERO SWAP1 SWAP2 MUL ADD SWAP2 POP CODESIZE DUP1 DUP1 DUP1 PUSH2 0x25C3 JUMP JUMPDEST ISZERO PUSH2 0x2628 JUMPI JUMP JUMPDEST PUSH1 0x40 MLOAD PUSH3 0x461BCD PUSH1 0xE5 SHL DUP2 MSTORE PUSH1 0x20 PUSH1 0x4 DUP3 ADD MSTORE PUSH1 0x14 PUSH1 0x24 DUP3 ADD MSTORE PUSH20 0x456D61696C20616C726561647920657869737473 PUSH1 0x60 SHL PUSH1 0x44 DUP3 ADD MSTORE PUSH1 0x64 SWAP1 REVERT JUMPDEST DUP1 MLOAD DUP3 LT ISZERO PUSH2 0x2678 JUMPI PUSH1 0x20 SWAP2 PUSH1 0x5 SHL ADD ADD SWAP1 JUMP JUMPDEST PUSH4 0x4E487B71 PUSH1 0xE0 SHL PUSH1 0x0 MSTORE PUSH1 0x32 PUSH1 0x4 MSTORE PUSH1 0x24 PUSH1 0x0 REVERT JUMPDEST SWAP2 SWAP1 DUP2 LT ISZERO PUSH2 0x2678 JUMPI PUSH1 0x5 SHL ADD SWAP1 JUMP JUMPDEST SWAP2 SWAP1 DUP3 ADD DUP1 SWAP3 GT PUSH2 0x298 JUMPI JUMP INVALID LOG2 PUSH5 0x6970667358 0x22 SLT KECCAK256 0x24 0xE1 0x23 0xA6 0xC1 0x2A KECCAK256 DUP6 PUSH27 0xAC0EC6488A7653C4B344A69F0866C2BF153208DDA1915664736F6C PUSH4 0x43000818 STOP CALLER "},"methodIdentifiers":{"batchSeedHistory(uint256,uint256[],uint256[],uint256[],uint256[],uint256,uint256)":"fa0d2b76","createHabit(uint256,string,string,string,string,uint256)":"4f553ed7","createUser(string,string)":"87b162b5","deleteHabit(uint256)":"dae52b0a","getHabit(uint256)":"3bfbc0b8","getHabitsByUserId(uint256)":"d9f0be45","getLogsByUserId(uint256)":"8d3a912f","getLogsCountByUserId(uint256)":"5b666b09","getUser(uint256)":"b0467deb","getUserByEmail(string)":"18046ae1","logCompletion(uint256,uint256,uint256,uint256)":"9c196582","updateHabit(uint256,string,string,string,string)":"8023e768","updateHabitStreak(uint256,uint256,uint256)":"1243f5fe","updateUser(uint256,string,string)":"7b7c3a9b","updateUserStats(uint256,uint256,uint256,string[])":"4e0d48a7","upgradeUser(uint256)":"34382996"}}}}}