{
  "_format": "hh-sol-artifact-1",
  "contractName": "HabitForge",
  "sourceName": "contracts/HabitForge.sol",
  "abi": [
    {
      "inputs": [
        {
          "internalType": "uint256",
          "name": "_userId",
          "type": "uint256"
        },
        {
          "internalType": "uint256[]",
          "name": "_habitIds",
          "type": "uint256[]"
        },
        {
          "internalType": "uint256[]",
          "name": "_completedAtList",
          "type": "uint256[]"
        },
        {
          "internalType": "uint256[]",
          "name": "_finalStreaks",
          "type": "uint256[]"
        },
        {
          "internalType": "uint256[]",
          "name": "_lastCompletedList",
          "type": "uint256[]"
        },
        {
          "internalType": "uint256",
          "name": "_totalXp",
          "type": "uint256"
        },
        {
          "internalType": "uint256",
          "name": "_newLevel",
          "type": "uint256"
        }
      ],
      "name": "batchSeedHistory",
      "outputs": [],
      "stateMutability": "nonpayable",
      "type": "function"
    },
    {
      "inputs": [
        {
          "internalType": "uint256",
          "name": "_userId",
          "type": "uint256"
        },
        {
          "internalType": "string",
          "name": "_name",
          "type": "string"
        },
        {
          "internalType": "string",
          "name": "_frequency",
          "type": "string"
        },
        {
          "internalType": "string",
          "name": "_color",
          "type": "string"
        },
        {
          "internalType": "string",
          "name": "_icon",
          "type": "string"
        },
        {
          "internalType": "uint256",
          "name": "_refreshInterval",
          "type": "uint256"
        }
      ],
      "name": "createHabit",
      "outputs": [
        {
          "internalType": "uint256",
          "name": "",
          "type": "uint256"
        }
      ],
      "stateMutability": "nonpayable",
      "type": "function"
    },
    {
      "inputs": [
        {
          "internalType": "string",
          "name": "_name",
          "type": "string"
        },
        {
          "internalType": "string",
          "name": "_email",
          "type": "string"
        }
      ],
      "name": "createUser",
      "outputs": [
        {
          "internalType": "uint256",
          "name": "",
          "type": "uint256"
        }
      ],
      "stateMutability": "nonpayable",
      "type": "function"
    },
    {
      "inputs": [
        {
          "internalType": "uint256",
          "name": "_id",
          "type": "uint256"
        }
      ],
      "name": "deleteHabit",
      "outputs": [],
      "stateMutability": "nonpayable",
      "type": "function"
    },
    {
      "inputs": [
        {
          "internalType": "uint256",
          "name": "_id",
          "type": "uint256"
        }
      ],
      "name": "getHabit",
      "outputs": [
        {
          "components": [
            {
              "internalType": "uint256",
              "name": "id",
              "type": "uint256"
            },
            {
              "internalType": "uint256",
              "name": "userId",
              "type": "uint256"
            },
            {
              "internalType": "string",
              "name": "name",
              "type": "string"
            },
            {
              "internalType": "string",
              "name": "frequency",
              "type": "string"
            },
            {
              "internalType": "string",
              "name": "color",
              "type": "string"
            },
            {
              "internalType": "string",
              "name": "icon",
              "type": "string"
            },
            {
              "internalType": "uint256",
              "name": "streak",
              "type": "uint256"
            },
            {
              "internalType": "uint256",
              "name": "lastCompleted",
              "type": "uint256"
            },
            {
              "internalType": "uint256",
              "name": "refreshInterval",
              "type": "uint256"
            },
            {
              "internalType": "uint256",
              "name": "createdAt",
              "type": "uint256"
            }
          ],
          "internalType": "struct HabitForge.Habit",
          "name": "",
          "type": "tuple"
        }
      ],
      "stateMutability": "view",
      "type": "function"
    },
    {
      "inputs": [
        {
          "internalType": "uint256",
          "name": "_userId",
          "type": "uint256"
        }
      ],
      "name": "getHabitsByUserId",
      "outputs": [
        {
          "components": [
            {
              "internalType": "uint256",
              "name": "id",
              "type": "uint256"
            },
            {
              "internalType": "uint256",
              "name": "userId",
              "type": "uint256"
            },
            {
              "internalType": "string",
              "name": "name",
              "type": "string"
            },
            {
              "internalType": "string",
              "name": "frequency",
              "type": "string"
            },
            {
              "internalType": "string",
              "name": "color",
              "type": "string"
            },
            {
              "internalType": "string",
              "name": "icon",
              "type": "string"
            },
            {
              "internalType": "uint256",
              "name": "streak",
              "type": "uint256"
            },
            {
              "internalType": "uint256",
              "name": "lastCompleted",
              "type": "uint256"
            },
            {
              "internalType": "uint256",
              "name": "refreshInterval",
              "type": "uint256"
            },
            {
              "internalType": "uint256",
              "name": "createdAt",
              "type": "uint256"
            }
          ],
          "internalType": "struct HabitForge.Habit[]",
          "name": "",
          "type": "tuple[]"
        }
      ],
      "stateMutability": "view",
      "type": "function"
    },
    {
      "inputs": [
        {
          "internalType": "uint256",
          "name": "_userId",
          "type": "uint256"
        }
      ],
      "name": "getLogsByUserId",
      "outputs": [
        {
          "components": [
            {
              "internalType": "uint256",
              "name": "id",
              "type": "uint256"
            },
            {
              "internalType": "uint256",
              "name": "habitId",
              "type": "uint256"
            },
            {
              "internalType": "uint256",
              "name": "userId",
              "type": "uint256"
            },
            {
              "internalType": "uint256",
              "name": "completedAt",
              "type": "uint256"
            }
          ],
          "internalType": "struct HabitForge.HabitLog[]",
          "name": "",
          "type": "tuple[]"
        }
      ],
      "stateMutability": "view",
      "type": "function"
    },
    {
      "inputs": [
        {
          "internalType": "uint256",
          "name": "_userId",
          "type": "uint256"
        }
      ],
      "name": "getLogsCountByUserId",
      "outputs": [
        {
          "internalType": "uint256",
          "name": "",
          "type": "uint256"
        }
      ],
      "stateMutability": "view",
      "type": "function"
    },
    {
      "inputs": [
        {
          "internalType": "uint256",
          "name": "_id",
          "type": "uint256"
        }
      ],
      "name": "getUser",
      "outputs": [
        {
          "components": [
            {
              "internalType": "uint256",
              "name": "id",
              "type": "uint256"
            },
            {
              "internalType": "string",
              "name": "name",
              "type": "string"
            },
            {
              "internalType": "string",
              "name": "email",
              "type": "string"
            },
            {
              "internalType": "uint256",
              "name": "xp",
              "type": "uint256"
            },
            {
              "internalType": "uint256",
              "name": "level",
              "type": "uint256"
            },
            {
              "internalType": "string[]",
              "name": "badges",
              "type": "string[]"
            },
            {
              "internalType": "bool",
              "name": "isPremium",
              "type": "bool"
            },
            {
              "internalType": "uint256",
              "name": "createdAt",
              "type": "uint256"
            }
          ],
          "internalType": "struct HabitForge.User",
          "name": "",
          "type": "tuple"
        }
      ],
      "stateMutability": "view",
      "type": "function"
    },
    {
      "inputs": [
        {
          "internalType": "string",
          "name": "_email",
          "type": "string"
        }
      ],
      "name": "getUserByEmail",
      "outputs": [
        {
          "components": [
            {
              "internalType": "uint256",
              "name": "id",
              "type": "uint256"
            },
            {
              "internalType": "string",
              "name": "name",
              "type": "string"
            },
            {
              "internalType": "string",
              "name": "email",
              "type": "string"
            },
            {
              "internalType": "uint256",
              "name": "xp",
              "type": "uint256"
            },
            {
              "internalType": "uint256",
              "name": "level",
              "type": "uint256"
            },
            {
              "internalType": "string[]",
              "name": "badges",
              "type": "string[]"
            },
            {
              "internalType": "bool",
              "name": "isPremium",
              "type": "bool"
            },
            {
              "internalType": "uint256",
              "name": "createdAt",
              "type": "uint256"
            }
          ],
          "internalType": "struct HabitForge.User",
          "name": "",
          "type": "tuple"
        }
      ],
      "stateMutability": "view",
      "type": "function"
    },
    {
      "inputs": [
        {
          "internalType": "uint256",
          "name": "_habitId",
          "type": "uint256"
        },
        {
          "internalType": "uint256",
          "name": "_userId",
          "type": "uint256"
        },
        {
          "internalType": "uint256",
          "name": "_completedAt",
          "type": "uint256"
        },
        {
          "internalType": "uint256",
          "name": "_newStreak",
          "type": "uint256"
        }
      ],
      "name": "logCompletion",
      "outputs": [
        {
          "internalType": "uint256",
          "name": "",
          "type": "uint256"
        }
      ],
      "stateMutability": "nonpayable",
      "type": "function"
    },
    {
      "inputs": [
        {
          "internalType": "uint256",
          "name": "_id",
          "type": "uint256"
        },
        {
          "internalType": "string",
          "name": "_name",
          "type": "string"
        },
        {
          "internalType": "string",
          "name": "_frequency",
          "type": "string"
        },
        {
          "internalType": "string",
          "name": "_color",
          "type": "string"
        },
        {
          "internalType": "string",
          "name": "_icon",
          "type": "string"
        }
      ],
      "name": "updateHabit",
      "outputs": [],
      "stateMutability": "nonpayable",
      "type": "function"
    },
    {
      "inputs": [
        {
          "internalType": "uint256",
          "name": "_id",
          "type": "uint256"
        },
        {
          "internalType": "uint256",
          "name": "_streak",
          "type": "uint256"
        },
        {
          "internalType": "uint256",
          "name": "_lastCompleted",
          "type": "uint256"
        }
      ],
      "name": "updateHabitStreak",
      "outputs": [],
      "stateMutability": "nonpayable",
      "type": "function"
    },
    {
      "inputs": [
        {
          "internalType": "uint256",
          "name": "_id",
          "type": "uint256"
        },
        {
          "internalType": "string",
          "name": "_name",
          "type": "string"
        },
        {
          "internalType": "string",
          "name": "_email",
          "type": "string"
        }
      ],
      "name": "updateUser",
      "outputs": [],
      "stateMutability": "nonpayable",
      "type": "function"
    },
    {
      "inputs": [
        {
          "internalType": "uint256",
          "name": "_id",
          "type": "uint256"
        },
        {
          "internalType": "uint256",
          "name": "_xp",
          "type": "uint256"
        },
        {
          "internalType": "uint256",
          "name": "_level",
          "type": "uint256"
        },
        {
          "internalType": "string[]",
          "name": "_badges",
          "type": "string[]"
        }
      ],
      "name": "updateUserStats",
      "outputs": [],
      "stateMutability": "nonpayable",
      "type": "function"
    },
    {
      "inputs": [
        {
          "internalType": "uint256",
          "name": "_id",
          "type": "uint256"
        }
      ],
      "name": "upgradeUser",
      "outputs": [],
      "stateMutability": "nonpayable",
      "type": "function"
    }
  ],
  "bytecode": "0x60808060405234610025576000600455600060055560006006556126e1908161002b8239f35b600080fdfe6080604052600436101561001257600080fd5b60e0600035811c80631243f5fe14611fec57806318046ae114611eb35780633438299614611e615780633bfbc0b814611dfa5780634e0d48a714611b325780634f553ed7146115c05780635b666b09146115545780637b7c3a9b146112595780638023e76814610ddb57806387b162b5146108735780638d3a912f146106a45780639c196582146105d0578063b0467deb146104be578063d9f0be4514610329578063dae52b0a146102e05763fa0d2b76146100cd57600080fd5b346102db573660031901126102db576001600160401b036024358181116102db576100fc9036906004016122d2565b6044358381116102db576101149036906004016122d2565b936064358181116102db5761012d9036906004016122d2565b90916084359081116102db576101479036906004016122d2565b9290936004351515806102cd575b61015e90612380565b8515806102c4576102ae57858804955b60005b81811061019d576004356000526000602052604060002060a4356003820155600460c435910155600080f35b6101a881838b61268e565b3581898102048914821517156102985760005b8b8a80831061020c57505050906001916101d682888861268e565b358160005283906020908282526006604060002001556101f7848b8d61268e565b35926000525260076040600020015501610171565b829161021f60019461022693880261269e565b908861268e565b35610232575b016101bb565b8c8b600691610283610244845461258e565b918285558260005261027c866002958a8a60209789895260406000209081550155875460005260043587604060002001558b0261269e565b908b61268e565b3592546000525260036040600020015561022c565b634e487b7160e01b600052601160045260246000fd5b634e487b7160e01b600052601260045260246000fd5b5060009561016e565b506004805490351115610155565b600080fd5b346102db5760203660031901126102db576004358015158061031d575b61030690612302565b600052600160205260006001604082200155600080f35b506005548111156102fd565b346102db576020806003193601126102db57600435801515806104b2575b61035090612380565b60055460009160015b82811115610477575061038461036e846122bb565b9361037c6040519586612093565b8085526122bb565b601f19018460005b8281106104615750505060006001905b8382111561040257604080518781528651818901819052600092600582901b8301810191898b01918b9085015b8287106103d65785850386f35b9091929382806103f2600193603f198a82030186528851612226565b96019201960195929190926103c9565b81600052600186526040600020918360018401541461042d575b61042791925061258e565b9061039c565b61045882610447610441610427959261258e565b956124eb565b610451828a612664565b5287612664565b5082915061041c565b61046961249c565b82828801015201859061038c565b8060005260018552816001604060002001541461049d575b6104989061258e565b610359565b926104aa6104989161258e565b93905061048f565b50600454811115610347565b50346102db576020806003193601126102db576004356104dc612340565b50801515806105c4575b6104ef90612380565b600052600081526040600020916040519161050983612040565b83548352600161051b600186016123f7565b8285015261052b600286016123f7565b6040850152600385015460608501526004850154608085015260058501805490610554826122bb565b936105626040519586612093565b82855260009182528082208186015b8484106105a95760a0890187905260068a015460ff16151560c08a015260078a0154888a0152604051806105a58b82612152565b0390f35b858381926105b6856123f7565b815201920193019290610571565b506004548111156104e6565b346102db5760803660031901126102db5760443560043560243581151580610698575b6105fc90612302565b8015158061068c575b61060e90612380565b600361061b60065461258e565b806006556040519261062c84612078565b81845260208401858152604085019182526060850192878452600052600260205260406000209451855551600185015551600284015551910155600052600160205260076040600020606435600682015501556020600654604051908152f35b50600454811115610605565b506005548211156105f3565b346102db576020806003193601126102db576004359081151580610867575b6106cc90612380565b60065460009260015b8281111561082d57506107006106ea856122bb565b946106f86040519687612093565b8086526122bb565b601f19018360005b8281106107fb5750505060006001905b8382111561077b57604080518681528751818801819052888801928201908860005b8281106107475784840385f35b855180518552808301518584015260408082015190860152606090810151908501529481019460809093019260010161073a565b816000526002918286526040600020928301548481146107a8575b506107a291925061258e565b90610718565b6107a2926107f39160036107bb8361258e565b96604051926107c984612078565b8154845260018201548c8501526040840152015460608201526107ec828b612664565b5288612664565b508291610796565b60405161080781612078565b600081526000838201526000604082015260006060820152828289010152018490610708565b806000528160028086526040600020015414610852575b61084d9061258e565b6106d5565b9361085f61084d9161258e565b949050610844565b506004548211156106c3565b50346102db5760403660031901126102db576004356001600160401b0381116102db576108a49036906004016120b4565b6024356001600160401b0381116102db576108c39036906004016120b4565b916108ed60405160208186516108dc8183858b0161210a565b810160038152030190205415612621565b6108f860045461258e565b8060045560405190602082018281106001600160401b03821117610bff57604052600082526040519161092a83612040565b81835260208301948552856040840152600060608401526001608084015260a0830152600060c08301524283830152600052600060205260406000209281518455518051906001600160401b038211610bff5761098a60018601546123bd565b601f8111610da6575b50602090601f8311600114610d34576109c5929160009183610b47575b50508160011b916000199060031b1c19161790565b60018401555b60408101518051906001600160401b038211610bff576109ee60028601546123bd565b601f8111610cff575b50602090601f8311600114610c8d57610a28929160009183610b475750508160011b916000199060031b1c19161790565b60028401555b606081015160038401556080810151600484015560a0810151805190600160401b8211610bff576005850154826005870155808310610c15575b5060200190600585016000526020600020916000905b828210610ad957602080898960078a8a6006840160c0820151151560ff801983541691161790550151910155610ac6600454928392816040519382858094519384920161210a565b8101600381520301902055604051908152f35b80518051906001600160401b038211610bff57610af686546123bd565b601f8111610bc2575b50602090601f8311600114610b525792610b3883600195946020948796600092610b475750508160011b916000199060031b1c19161790565b87555b01940191019092610a7e565b0151905038806109b0565b908660005260206000209160005b601f1985168110610baa575083602093600196938796938794601f19811610610b91575b505050811b018755610b3b565b015160001960f88460031b161c19169055388080610b84565b91926020600181928685015181550194019201610b60565b610bef90876000526020600020601f850160051c81019160208610610bf5575b601f0160051c0190612577565b38610aff565b9091508190610be2565b634e487b7160e01b600052604160045260246000fd5b600586016000526020600020908382015b8183018110610c36575050610a68565b80610c43600192546123bd565b80610c50575b5001610c26565b601f81118314610c665750600081555b38610c49565b600090828252610c84601f60208420920160051c8201858301612577565b81835555610c60565b9190600286016000526020600020906000935b601f1984168510610ce4576001945083601f19811610610ccb575b505050811b016002840155610a2e565b015160001960f88460031b161c19169055388080610cbb565b81810151835560209485019460019093019290910190610ca0565b610d2e90600287016000526020600020601f850160051c81019160208610610bf557601f0160051c0190612577565b386109f7565b9190600186016000526020600020906000935b601f1984168510610d8b576001945083601f19811610610d72575b505050811b0160018401556109cb565b015160001960f88460031b161c19169055388080610d62565b81810151835560209485019460019093019290910190610d47565b610dd590600187016000526020600020601f850160051c81019160208610610bf557601f0160051c0190612577565b38610993565b346102db5760a03660031901126102db576001600160401b036004356024358281116102db57610e0f9036906004016120b4565b916044358181116102db57610e289036906004016120b4565b926064358281116102db57610e419036906004016120b4565b936084358381116102db57610e5a9036906004016120b4565b938015158061124d575b610e6d90612302565b600052600190602095828752604060002091600283018551878111610bff57610e9682546123bd565b96601f978b89821161121e575b50508a908883116001146111b857610ed39291600091836111ad5750508160011b916000199060031b1c19161790565b90555b80516003840191878211610bff57610eee83546123bd565b8a88821161117e575b5050899087831160011461111a57610f279291600091836110795750508160011b916000199060031b1c19161790565b90555b80516004830191868211610bff57610f4283546123bd565b8681116110ec575b508890868311600114611084579180610f7e9260059695946000926110795750508160011b916000199060031b1c19161790565b90555b01948451938411610bff57610f9686546123bd565b838111611041575b5080928411600114610fdd5750508190610fce93600092610fd25750508160011b916000199060031b1c19161790565b9055005b0151905084806109b0565b91909383601f1981168760005284600020946000905b88838310611027575050501061100e575b505050811b019055005b015160001960f88460031b161c19169055838080611004565b858701518855909601959485019487935090810190610ff3565b61106a9087600052826000208580880160051c820192858910611070575b0160051c0190612577565b86610f9e565b9250819261105f565b015190508b806109b0565b9392918591601f19821690846000528b6000209160005b8d8282106110d65750509683600598106110bd575b505050811b019055610f81565b015160001960f88460031b161c191690558a80806110b0565b838a015185558a9690940193928301920161109b565b61111490846000528a6000208880860160051c8201928d8710611070570160051c0190612577565b89610f4a565b869291601f19831691856000528c600020928d6000905b828210611167575050841161114e575b505050811b019055610f2a565b015160001960f88460031b161c191690558a8080611141565b8385015186558b979095019493840193018e611131565b6111a6918560005289826000209181870160051c8301938710611070570160051c0190612577565b8a8a610ef7565b015190508c806109b0565b8792918c91601f1984168660005283600020936000905b82821061120557505084116111ec575b505050811b019055610ed6565b015160001960f88460031b161c191690558b80806111df565b8484015186558c979095019493840193908101906111cf565b61124691856000528a826000209181870160051c8301938710611070570160051c0190612577565b8b8b610ea3565b50600554811115610e64565b346102db5760603660031901126102db576001600160401b036004356024358281116102db5761128d9036906004016120b4565b916044358181116102db576112a69036906004016120b4565b9180151580611548575b6112b990612380565b8060005260209260008452604060002090600282019060405193868501856112e1828661259d565b03956112f5601f1997888101835282612093565b51902087604051918183018551936113248482818a019761131781878b61210a565b8101038084520182612093565b519020036113ff575b50505050506001809101938551938411610bff5761134b85546123bd565b601f81116113cf575b508092601f8511600114611388575050508190610fce9394600092610fd25750508160011b916000199060031b1c19161790565b600086815282812094939186169290915b8383106113b8575050509483600195961061100e57505050811b019055005b888501518655948501949381019391810191611399565b6113f9908660005282600020601f870160051c810191848810610bf557601f0160051c0190612577565b86611354565b61144391611418604051838188516108dc81838861210a565b60006040518381611429818b61259d565b60038152030190205560405180938192875192839161210a565b8101600381520301902055805190858211610bff5761146283546123bd565b601f8111611518575b508690601f83116001146114b35761149b9291600091836114a85750508160011b916000199060031b1c19161790565b90555b858080808761132d565b0151905089806109b0565b908583169184600052886000209260005b8a8282106115025750509084600195949392106114e9575b505050811b01905561149e565b015160001960f88460031b161c191690558880806114dc565b60018596829396860151815501950193016114c4565b611542908460005288600020601f850160051c8101918a8610610bf557601f0160051c0190612577565b8861146b565b506004548111156112b0565b346102db576020806003193601126102db576006546000916004359060015b8381111561158657602085604051908152f35b8060005282600280845260406000200154146115ab575b6115a69061258e565b611573565b936115b86115a69161258e565b94905061159d565b50346102db5760c03660031901126102db57600435906024356001600160401b0381116102db576115f59036906004016120b4565b906044356001600160401b0381116102db576116159036906004016120b4565b916064356001600160401b0381116102db576116359036906004016120b4565b6084356001600160401b0381116102db576116549036906004016120b4565b85151580611b26575b61166690612380565b61167160055461258e565b9182600555604051956116838761205c565b83875260208701978852604087019485526060870152608086015260a0850152600060c085015260008385015260a43561010085015242610120850152600052600160205260406000209383518555516001850155519283516001600160401b038111610bff576116f760028301546123bd565b601f8111611af1575b506020601f8211600114611a8257819061173393949596600092610b475750508160011b916000199060031b1c19161790565b60028201555b60608301519283516001600160401b038111610bff5761175c60038401546123bd565b601f8111611a4d575b50602094601f82116001146119e157611799929394958291600092610b475750508160011b916000199060031b1c19161790565b60038301555b60808101519283516001600160401b038111610bff576117c260048501546123bd565b601f81116119ac575b50602094601f8211600114611940576117ff929394958291600092610b475750508160011b916000199060031b1c19161790565b60048401555b6005830160a08301518051906001600160401b038211610bff5761182983546123bd565b601f811161190e575b50602090601f831160011461189e57826101209593600997959361186c93600092610b475750508160011b916000199060031b1c19161790565b90555b60c082015160068601558101516007850155610100810151600885015501519101556020600554604051908152f35b90601f198316918460005260206000209260005b8181106118f65750926001928592610120989660099a9896106118dd575b505050811b01905561186f565b015160001960f88460031b161c191690553880806118d0565b929360206001819287860151815501950193016118b2565b61193a90846000526020600020601f850160051c81019160208610610bf557601f0160051c0190612577565b38611832565b601f198216956004860160005260206000209160005b8881106119945750836001959697981061197b575b505050811b016004840155611805565b015160001960f88460031b161c1916905538808061196b565b91926020600181928685015181550194019201611956565b6119db90600486016000526020600020601f840160051c81019160208510610bf557601f0160051c0190612577565b386117cb565b601f198216956003850160005260206000209160005b888110611a3557508360019596979810611a1c575b505050811b01600383015561179f565b015160001960f88460031b161c19169055388080611a0c565b919260206001819286850151815501940192016119f7565b611a7c90600385016000526020600020601f840160051c81019160208510610bf557601f0160051c0190612577565b38611765565b6002830160005260206000209060005b601f1984168110611ad9575060019394959683601f19811610611ac0575b505050811b016002820155611739565b015160001960f88460031b161c19169055388080611ab0565b9091602060018192858b015181550193019101611a92565b611b2090600284016000526020600020601f840160051c81019160208510610bf557601f0160051c0190612577565b38611700565b5060045486111561165d565b346102db5760803660031901126102db5760043560643560246001600160401b038083116102db57366023840112156102db57826004013590611b74826122bb565b91611b826040519384612093565b80835260209586840195868660059460051b830101913683116102db57878101915b838310611dd4575050505080151580611dc8575b611bc190612380565b60005260008652604060002093600560039582356003820155604435600482015501935195600160401b8711611db3578454878655808810611d3f575b50949360005286600020936000955b878710611c1657005b8051805190868211611d2a57908a9291611c3089546123bd565b90601f91828111611cf4575b5084918311600114611c8a578260019593869593611c7093600092611c7f5750508160011b916000199060031b1c19161790565b89555b01960196019594611c0d565b015190508f806109b0565b90601f198316918a600052856000209260005b818110611cdd575091600196949291838897959310611cc5575b505050831b83018955611c73565b015160001983891b60f8161c191690558d8080611cb7565b929387600181928786015181550195019301611c9d565b611d1b908b60005286600020848087018c1c820192898810611d21575b018b1c0190612577565b8d611c3c565b92508192611d11565b84634e487b7160e01b60005260416004526000fd5b85600052878960002091820191015b818110611d5b5750611bfe565b80611d68600192546123bd565b80611d75575b5001611d4e565b601f908c8282118514611d9057505050600081555b8b611d6e565b600092611daa9185855284209201891c8201858301612577565b81835555611d8a565b50634e487b7160e01b60009081526041600452fd5b50600454811115611bb8565b82358781116102db578b91611def83928c36918701016120b4565b815201920191611ba4565b346102db5760203660031901126102db57600435611e1661249c565b5080151580611e55575b611e2990612302565b60005260016020526105a5611e4160406000206124eb565b604051918291602083526020830190612226565b50600554811115611e20565b346102db5760203660031901126102db5760043580151580611ea7575b611e8790612380565b60005260006020526006604060002001600160ff19825416179055600080f35b50600454811115611e7e565b50346102db576020806003193601126102db576004356001600160401b0381116102db5781611ee9611f059236906004016120b4565b611ef1612340565b50816040519382858094519384920161210a565b8101600381520301902054611f1b811515612380565b6000526000815260406000209160405191611f3583612040565b835483526001611f47600186016123f7565b82850152611f57600286016123f7565b6040850152600385015460608501526004850154608085015260058501805490611f80826122bb565b93611f8e6040519586612093565b82855260009182528082208186015b848410611fd15760a0890187905260068a015460ff16151560c08a015260078a0154888a0152604051806105a58b82612152565b85838192611fde856123f7565b815201920193019290611f9d565b346102db5760603660031901126102db5760043580151580612034575b61201290612302565b6000526001602052604060002060243560068201556007604435910155600080f35b50600554811115612009565b61010081019081106001600160401b03821117610bff57604052565b61014081019081106001600160401b03821117610bff57604052565b608081019081106001600160401b03821117610bff57604052565b90601f801991011681019081106001600160401b03821117610bff57604052565b81601f820112156102db578035906001600160401b038211610bff57604051926120e8601f8401601f191660200185612093565b828452602083830101116102db57816000926020809301838601378301015290565b60005b83811061211d5750506000910152565b818101518382015260200161210d565b906020916121468151809281855285808601910161210a565b601f01601f1916010190565b602091828252805183830152828101519061217b6101009283604086015261012085019061212d565b612197604083015191601f19928387830301606088015261212d565b60608301516080860152608083015160a086015260a083015195828683030160c087015286519182815281810182808560051b8401019901946000925b8584106121f857505050505050508060c060e0920151151582850152015191015290565b909192939495998580612215838e8787600197030189525161212d565b9c01940194019295949391906121d4565b9061228e61227c61226a612258610140865186526020870151602087015260408701519080604088015286019061212d565b6060860151858203606087015261212d565b6080850151848203608086015261212d565b60a084015183820360a085015261212d565b9160c081015160c083015260e081015160e083015261010080820151908301526101208091015191015290565b6001600160401b038111610bff5760051b60200190565b9181601f840112156102db578235916001600160401b0383116102db576020808501948460051b0101116102db57565b1561230957565b60405162461bcd60e51b815260206004820152600f60248201526e1218589a5d081b9bdd08199bdd5b99608a1b6044820152606490fd5b6040519061234d82612040565b600060e0838281526060602082015260606040820152826060820152826080820152606060a08201528260c08201520152565b1561238757565b60405162461bcd60e51b815260206004820152600e60248201526d155cd95c881b9bdd08199bdd5b9960921b6044820152606490fd5b90600182811c921680156123ed575b60208310146123d757565b634e487b7160e01b600052602260045260246000fd5b91607f16916123cc565b9060405191826000825461240a816123bd565b9081845260209460019160018116908160001461247a575060011461243b575b50505061243992500383612093565b565b600090815285812095935091905b818310612462575050612439935082010138808061242a565b85548884018501529485019487945091830191612449565b9250505061243994925060ff191682840152151560051b82010138808061242a565b604051906124a98261205c565b816101206000918281528260208201526060604082015260608082015260606080820152606060a08201528260c08201528260e0820152826101008201520152565b906040516124f88161205c565b610120600982948054845260018101546020850152612519600282016123f7565b604085015261252a600382016123f7565b606085015261253b600482016123f7565b608085015261254c600582016123f7565b60a0850152600681015460c0850152600781015460e085015260088101546101008501520154910152565b818110612582575050565b60008155600101612577565b60001981146102985760010190565b6000929181546125ac816123bd565b9260019180831690811561260657506001146125c9575b50505050565b9091929394506000526020906020600020906000915b8583106125f557505050500190388080806125c3565b8054858401529183019181016125df565b60ff19168452505050811515909102019150388080806125c3565b1561262857565b60405162461bcd60e51b8152602060048201526014602482015273456d61696c20616c72656164792065786973747360601b6044820152606490fd5b80518210156126785760209160051b010190565b634e487b7160e01b600052603260045260246000fd5b91908110156126785760051b0190565b919082018092116102985756fea264697066735822122024e123a6c12a20857aac0ec6488a7653c4b344a69f0866c2bf153208dda1915664736f6c63430008180033",
  "linkReferences": {},
  "deployedLinkReferences": {}
}